S013000053657269616C44656275672E73726563CA
S11300008BC0A5C0A4C0A3C0A2C0A1C0A0C09FC0F3
S1130010B2C19DC08DC19BC09AC099C098C0004018
S11300207A10F35A00A0724E18090010A5D4E80003
S113003000E87648170000E40B54020000CA9A3B1B
S1130040000000E1F50500008096980000004042A1
S11300500F000000A086010000001027000000002F
S1130060E803000000006400000000000A00000033
S113007000000100000000002C76D888DC674F08DF
S113008023DFC1DFAE59E1B1B796E5E3E453C63AE5
S1130090E651997696E8E6C28426EB898C9B62ED5C
S11300A0407C6FFCEFBC9C9F40F2BAA56FA5F49016
S11300B0055A2AF75C936B6CF9676DC11BFCE0E48D
S11300C00D47FEF520E6B500D0ED902E03009435E3
S11300D077050080841E080000204E0A000000C836
S11300E00C333333330F986E12831141EF8D211487
S11300F0893BE65516CFFEE6DB18D1844B381BF757
S11301007C1D901DA4BBE424203284725E228100F5
S1130110C9F124ECA1E53D2711241FBECFE5D2E0AF
S1130120DEBFCDBF10E0A0E6B0E0ECEBF1E102C031
S113013005900D92AA36B107D9F720E0AAE6B0E0FF
S113014001C01D92AD3DB207E1F7B8D335C858CF11
S1130150C49ABC9A0895C498000000000000EFE01F
S1130160F0E03197F1F798E080FF03C00000C49AF3
S113017003C0C49800000000869500000000000041
S1130180EEE0F0E03197F1F7915071F700000000D4
S113019000000000C49AEFE0F0E03197F1F7089511
S11301A0CF93CFB7F894D7DFCFBFCF910895CF9334
S11301B0DF93EC0180916000811104C0888181117A
S11301C00AC00EC08881882359F02196E9DF8991FD
S11301D08111FCCF05C02196BEDF89918111FCCF2E
S11301E0DF91CF910895CF93DF93FC01808180321A
S11301F039F4CF010196FC01019620812032D9F314
S113020080916000811104C0808181110BC010C0F5
S11302108081882369F0EF012196C2DF89918111E1
S1130220FCCF06C0EF01219696DF89918111FCCFA6
S1130230DF91CF910895CF93DF9300D000D000D009
S1130240CDB7DEB7CB0150E0BE016F5F7F4F1BD54A
S1130250CE010196C8DF26960FB6F894DEBF0FBE16
S1130260CDBFDF91CF9108950F931F93CF93DF9369
S1130270CDB7DEB72B970FB6F894DEBF0FBECDBF58
S1130280CB01BA018E010F5F1F4F4AE0DDD4C801D4
S1130290AADF2B960FB6F894DEBF0FBECDBFDF9159
S11302A0CF911F910F91089590916000992311F0BF
S11302B077DF089550DF08958DE0F6DF8AE0F4DFFC
S11302C00895CF93DF93EC01CB0171DFCE01F4DF0E
S11302D0DF91CF910895B89AB99ABA9ABB9A91E0EE
S11302E001C09F5F8FEF890F813041F028F0823089
S11302F039F0833039F008C0C09AF3CFC19AF1CFF6
S1130300C29AEFCFC39A0895943058F3089582E0C7
S11303108ABD93E699BD83BF89B7806189BF08957B
S113032080B58E7F80BD17B83D988FE886B9089553
S11303301F920F920FB60F9211248F938091DB00BE
S1130340882319F0823019F005C0C59A03C0C598F6
S1130350369AC29A8091DB008F5F8093DB00809194
S1130360DB008D3710F01092DB008F910F900FBEE1
S11303700F901F9018951F920F920FB60F92112491
S11303802F933F938F939F9324B135B180918E0027
S113039090918F00280F391F30938F0020938E0087
S11303A080918D008F5F80938D00803210F4369A97
S11303B00EC081E0809392003093910020939000CE
S11303C010928F0010928E0010928D00C2989F910F
S11303D08F913F912F910F900FBE0F901F90189502
S11303E0E199FECF1CBA8EBB6DBBE29AE19A0895E7
S11303F0E199FECF8EBBE09A8DB30895CF93DF933E
S1130400CDB7DEB729970FB6F894DEBF0FBECDBFC8
S113041087DF7DDF789441E01F821D821E8219826E
S11304200F2EF1E8EF2EF0E0FF2EF02D01C040E09A
S113043080919200882309F4F4C11092920044231D
S113044009F440C0609190007091910080E090E0C8
S1130450DAD26093890070938A0080938B00909322
S11304608C00609190007091910080E090E0CBD27C
S11304706093850070938600809387009093880032
S1130480609190007091910080E090E0BCD2609304
S11304908100709382008093830090938400E9E745
S11304A0F0E0A1E7B0E080919000909191008193F9
S11304B0919380919000909191008D939D93EE156E
S11304C0FF0589F780919000909191009A83898328
S11304D020E030E040E05FE36091890070918A00A1
S11304E080918B0090918C0044D34B015C01A981D5
S11304F0BA81BD0180E090E086D220E030E040E0A7
S11305005FE337D39B01AC01C501B40114D2698305
S11305107A838B839C836093890070938A00809391
S11305208B0090938C0020917000822F90E040917A
S1130530900050919100FC01EE0FFF1FE758FF4F10
S1130540608171816417750760F440919000509147
S11305509100880F991FFC01E758FF4F5183408396
S113056019C04091900050919100FC01EE0FFF1FC3
S1130570EF58FF4F608171814617570758F4409137
S1130580900050919100880F991FFC01EF58FF4F84
S11305905183408380916F008F5F883018F480937B
S11305A06F0021C010926F002F5F243018F4209345
S11305B0700002C0109270008091700090E0209151
S11305C0900030919100880F991FFC01E758FF4F6C
S11305D0318320832091900030919100FC01EF58E9
S11305E0FF4F31832083E9E7F0E06081718180E08F
S11305F090E009D26887C72E782E692EA1E7B0E073
S11306006D917C9180E090E0FED1362E272E882ECD
S1130610992E0F2EFBE74F2EF0E05F2EF02D0F2EBC
S1130620F1E7AF2EF0E0BF2EF02DF2016191719150
S11306302F0180E090E0E7D1D62E072F182F99875D
S113064028853C2D472D562D90D21816E4F0D5015F
S113065012966D917C91139780E090E0D4D1D62EC0
S1130660072F182F9987262F372F482F592F632D9F
S1130670722D882D992D79D218164CF43D2C202EEC
S1130680812E998404C0D886C02E712E6984B2E06C
S1130690AB0EB11C4E145F0441F6E885832D922DF8
S11306A0A82DB92D8093810090938200A09383009C
S11306B0B09384008E2F9C2DA72DB62D809385009A
S11306C090938600A0938700B0938800232D322D49
S11306D0482D592D6E2F7C2D872D962D2BD12B0136
S11306E03C0120E030E040E05FE343D2232D322D93
S11306F0482D592D20D14B015C01609190007091DF
S113070091004AE08CED90E096DD81E690E04FDDCB
S11307104091890050918A0060918B0070918C0007
S113072022E08CED90E0A0DD81E690E040DD409198
S1130730850050918600609187007091880022E0C6
S11307408CED90E091DD81E690E031DD4091810017
S113075050918200609183007091840022E08CEDBE
S113076090E082DD81E690E022DD22E0B501A40183
S11307708CED90E079DD81E690E019DD22E0B301B3
S1130780A2018CED90E070DD8CED90E095DDA5018B
S1130790940169817A818B819C8131D1882324F4ED
S11307A0C098F1E0F98302C0C09A198220E030E0D9
S11307B04AEF53E4C301B201D8D188230CF437CEF5
S11307C029813E81231771F08D81880F282B2D8379
S11307D05CE050936E0081E080936D0080936C0028
S11307E091E016C080916C0090916E0089130FC047
S11307F09D81990FA981A92BAD83885F80936E0099
S113080080916D008F5F80936D0091E001C090E056
S113081080916C008F5F80936C00B981BE8340E04F
S113082001C090E0992309F403CEEF81E1110CC0DB
S11308308D818F708E3009F0FBCDA3E9B0E01C925E
S1130840B1E0BF831D82F4CD90916B00E92FF0E0FD
S113085080916A00ED56FF4F5981252F30E0082E14
S113086002C0220F331F0A94E2F73081232B208326
S11308708F5F80936A00863008F4DACD8D8180FD25
S113088006C010926B0010926A001F82D1CD9F5F48
S113089090936B0010926A00E92FF0E0ED56FF4F41
S11308A01082C6CD80E886BD16BC15DD39DD50DC6E
S11308B063E670E08CED90E004DD08958FEB9DE538
S11308C00197F1F700C00000EDDF8FEF91DD282FD5
S11308D030E02F5F3F4F2430310524F060E08FEF8C
S11308E07FDD04C061E0680F8FEF7ADD9FEF29E6BA
S11308F088E1915020408040E1F700C0000060E0B2
S11309008FEF6EDD91E001C09F5F8FEF890F813023
S113091041F028F0823039F0833039F008C0C09AB1
S1130920F3CFC19AF1CFC29AEFCFC39A02C09430E9
S113093058F364DD5058BB27AA270ED0DCC0CDD0B5
S113094030F0D2D020F031F49F3F11F41EF4C2C035
S11309500EF4E095E7FBB8C0E92FDED080F3BA17B8
S1130960620773078407950718F071F49EF5F6C0C3
S11309700EF4E0950B2EBA2FA02D0B01B9019001B6
S11309800C01CA01A0011124FF27591B99F0593FFA
S113099050F4503E68F11A16F040A22F232F342F42
S11309A04427585FF3CF469537952795A795F04090
S11309B05395C9F77EF41F16BA0B620B730B840BA5
S11309C0BAF09150A1F0FF0FBB1F661F771F881F5D
S11309D0C2F70EC0BA0F621F731F841F48F48795B5
S11309E077956795B795F7959E3F08F0B3CF9395A4
S11309F0880F08F09927EE0F97958795089540D0B2
S1130A0008F481E00895E89409C097FB3EF49095BA
S1130A108095709561957F4F8F4F9F4F9923A9F0D3
S1130A20F92F96E9BB279395F69587957795679562
S1130A30B795F111F8CFFAF4BB0F11F460FF1BC0A6
S1130A406F5F7F4F8F4F9F4F16C0882311F096E939
S1130A5011C0772321F09EE8872F762F05C06623E7
S1130A6071F096E8862F70E060E02AF09A95660FA0
S1130A70771F881FDAF7880F9695879597F9089559
S1130A80990F0008550FAA0BE0E8FEEF161617069B
S1130A90E807F907C0F012161306E407F50798F003
S1130AA0621B730B840B950B39F40A2661F0232B1C
S1130AB0242B252B21F408950A2609F4A140A69598
S1130AC08FEF811D811D089597F99F6780E870E07D
S1130AD060E008959FEF80EC089500240A941616B0
S1130AE0170618060906089500240A941216130618
S1130AF0140605060895092E0394000C11F48823A6
S1130B0052F0BB0F40F4BF2B11F460FF04C06F5FC1
S1130B107F4F8F4F9F4F089557FD9058440F551F97
S1130B2059F05F3F71F04795880F97FB991F61F06B
S1130B309F3F79F087950895121613061406551FE2
S1130B40F2CF4695F1DF08C0161617061806991F4E
S1130B50F1CF86957105610508940895E894BB2743
S1130B6066277727CB0197F908958ADF08F48FEF7A
S1130B7008950AD0C0CFB1DF28F0B6DF18F095236E
S1130B8009F0A2CFA7CFEBCFC7DFA8F39923D9F3FE
S1130B905523C9F3950F50E0551FAA27EE27FF27C9
S1130BA0BB2700240894679520F4E20FF31FB41FB9
S1130BB00A1E220F331F441FAA1F6695A9F77795B3
S1130BC030F4F30FB41F0A1E121E08F46395330F9A
S1130BD0441FAA1F221F769599F7879520F4B40F16
S1130BE00A1E121E631F440FAA1F221F331F86955D
S1130BF0A9F7862F712D602D11249F5750408AF03C
S1130C00E1F088234AF0EE0FFF1FBB1F661F771F1A
S1130C10881F91505040A9F79E3F510570F054CF62
S1130C209ECF5F3FECF3983EDCF38695779567950E
S1130C30B795F795E7959F5FC1F7FE2B880F911D38
S1130C409695879597F90895EF920F931F93CF93F5
S1130C50DF93E80147FD02C034E001C034E1042E13
S1130C60000C550B57FF03C0519541955109E32ED4
S1130C70022F242FAE012AD0CE01DF91CF911F91F4
S1130C800F91EF9008954532510518F4423008F061
S1130C9004C0FB011082CB010895BB27FB0155273B
S1130CA0AA27880F991FAA1FA41710F0A41B8395C5
S1130CB05051B9F7A05DAA3308F0A95DA19300973C
S1130CC079F7B111B1931192CB012FC2A9E0B0E031
S1130CD0EBE6F6E040C26A01122FB02E2BE3201798
S1130CE020F0FF24F394F00E02C02CE3F22E0F2D1B
S1130CF027E0AE014F5F5F4F40D1BC014981842F93
S1130D008970813031F0E1FC06C0E0FE06C090E25B
S1130D1005C09DE203C09BE201C090E05E2D5071CE
S1130D2043FF3CC0911102C083E001C084E08117FD
S1130D3018F4212F281B01C020E051110BC0F6012B
S1130D40822F30E2882319F031938150FBCFC20EF9
S1130D50D11C20E0992329F0D6019C93F601319609
S1130D606F01C6010396E2FE0AC03EE4D6013C933D
S1130D7041E411964C93119712963C9306C03EE6BB
S1130D80F601308341E641833283FC01322F40E295
S1130D90332309F442C041933150FACF42FF44C097
S1130DA0911102C083E001C084E0811718F4212F5F
S1130DB0281B01C020E051110BC0F601822F30E244
S1130DC0882319F031938150FBCFC20ED11C20E04F
S1130DD0992329F0D6019C93F60131966F01C6013F
S1130DE00396E2FE0BC039E4D6013C933EE411962F
S1130DF03C93119736E412963C9307C039E6F6010A
S1130E0030833EE6318336E63283FC01322F40E202
S1130E10332319F041933150FBCFFC01E20FF11D54
S1130E2010828EEF9FEFA6C021E030E0911102C046
S1130E3020E030E0161617061CF4FB01319602C0C0
S1130E40E1E0F0E02E0F3F1FBB2021F0EB2DF0E09E
S1130E50319602C0E0E0F0E02E0F3F1FE12FF0E0FA
S1130E602E173F071CF4121B212F01C020E08E2DEA
S1130E70887159F4F601822F30E2882319F03193F6
S1130E808150FBCFC20ED11C20E0992329F0D6015A
S1130E909C93F60131966F0151110BC0F601822F1C
S1130EA090E3882319F091938150FBCFC20ED11C9B
S1130EB020E00F2D060F9A81342F307144FF03C0B8
S1130EC0913309F40150101624F4093018F008E0A5
S1130ED001C001E0AB0177FF02C040E050E0FB013C
S1130EE0E41BF50BA1E0B0E0AC0FBD1FEA0FFB1F44
S1130EF08EE2A82E4B01801A91080B2D10E011955B
S1130F00019511094F3FBFEF5B0721F4D601AC9265
S1130F1011966D01641775072CF08416950614F468
S1130F20818101C080E3415051093196D601119667
S1130F307D014017510724F0D6018C936701E2CF5D
S1130F406417750739F4963320F4953319F4311185
S1130F5001C081E3F6018083F701822F90E28823A8
S1130F6019F091938150FBCFF701E20FF11D10822C
S1130F7080E090E02996ECE00AC1283008F027E0F0
S1130F803327DA01990F311D87FD916000966105C1
S1130F90710539F432602E5F3D9330E32A95E1F711
S1130FA008959F3F30F080387105610509F03C5F7A
S1130FB03C5F3D93913008F08068911DDF93CF939F
S1130FC01F930F93FF92EF92192F987F9695E92F15
S1130FD096959695E90FFF27E858FF4F99273327F1
S1130FE0EE24FF24A701E70105900894079428F450
S1130FF0360FE71EF81E491F511D660F771F881F05
S1131000991F0694A1F70590079428F4E70EF81E9B
S1131010491F561FC11D770F881F991F661F06940D
S1131020A1F70590079428F4F80E491F561FC71F0F
S1131030D11D880F991F661F771F0694A1F705908D
S1131040079420F4490F561FC71FD81F990F661F16
S1131050771F881F0694A9F784911095177041F0A3
S1131060D695C79557954795F794E7941A95C1F780
S1131070EEE1F0E0689415901591359165919591A4
S113108005907FE27395E118F10A430B560BC90BE7
S1131090D009C0F7E10CF11E431F561FC91FD01D14
S11310A07EF4703311F48A95E6CFE894015030F061
S11310B0080F0AF40027021708F4202F2395022FA3
S11310C07A3328F079E37D932A95E9F710C07D936C
S11310D02A9589F6069497956795379517951794E9
S11310E0E118F10A430B560BC90BD00998F023956C
S11310F07E9173957A3308F070E37C932013B8F7EC
S11311007E9170617D9330F0839571E37D9370E3FC
S11311102A95E1F71124EF90FF900F911F91CF9141
S1131120DF91992787FD90950895DC01FC01672FD5
S113113071917723E1F7329704C07C916D937083AA
S11311406291AE17BF07C8F308952F923F924F9252
S11311505F926F927F928F929F92AF92BF92CF9243
S1131160DF92EF92FF920F931F93CF93DF93CDB74C
S1131170DEB7CA1BDB0B0FB6F894DEBF0FBECDBFC4
S113118009942A88398848885F846E847D848C8495
S11311909B84AA84B984C884DF80EE80FD800C819E
S11311A01B81AA81B981CE0FD11D0FB6F894DEBF81
S10F11B00FBECDBFED010895F894FFCFF1
S10D11BC012C0068656C6C6F0000E4
S9030000FC
