S013000053657269616C44656275672E73726563CA
S11300000EC028C027C026C025C024C023C022C0DB
S113001018C120C0F3C01EC01DC01CC01BC01124C9
S11300201FBECFE5D2E0DEBFCDBF10E0A0E6B0E05A
S1130030EEE4FCE002C005900D92A038B107D9F7B8
S113004021E0A0E8B0E001C01D92A430B207E1F7BE
S1130050CDD3FBC5D5CFC49ABC9A0895C4980000EB
S113006000000000EFE0F0E03197F1F798E080FF46
S113007003C00000C49A03C0C49800000000869521
S1130080000000000000EEE0F0E03197F1F791503D
S113009071F70000000000000000C49AEFE0F0E0F7
S11300A03197F1F70895CF93CFB7F894D7DFCFBF47
S11300B0CF910895CF93DF93EC018091610081117A
S11300C004C0888181110AC00EC08881882359F038
S11300D02196E9DF89918111FCCF05C02196BEDF0D
S11300E089918111FCCFDF91CF910895CF93DF9354
S11300F0FC018081803239F4CF010196FC01019624
S113010020812032D9F380916100811104C0808163
S113011081110BC010C08081882369F0EF01219602
S1130120C2DF89918111FCCF06C0EF01219696DFD1
S113013089918111FCCFDF91CF910895CF93DF9303
S1130140CDB7DEB727970FB6F894DEBF0FBECDBF8D
S1130150CB0150E0BE016F5F7F4F3AD5CE010196CF
S1130160C5DF27960FB6F894DEBF0FBECDBFDF9173
S1130170CF91089590916100992311F094DF08952F
S11301806DDF08958DE0F6DF8AE0F4DF0895CF9304
S1130190DF93EC01CB018EDFCE01F4DFDF91CF9151
S11301A00895B89AB99ABA9ABB9A91E001C09F5F30
S11301B08FEF890F813041F028F0823039F083309D
S11301C039F008C0C09AF3CFC19AF1CFC29AEFCFE9
S11301D0C39A0895943058F3089582E08ABD93E653
S11301E099BD83BF89B7806189BF089580B58E7F2B
S11301F080BD17B83D988FE886B908951F920F9275
S11302000FB60F9211248F9380910201882319F065
S1130210823019F005C0C59A03C0C598369AC29AAF
S1130220809102018F5F80930201809102018E37D9
S113023010F0109202018F910F900FBE0F901F903B
S113024018951F920F920FB60F9211242F933F937C
S11302508F939F9324B135B18091B5009091B600EE
S1130260280F391F3093B6002093B5008091B40055
S11302708F5F8093B400803210F4369A0EC081E010
S11302808093B9003093B8002093B7001092B60061
S11302901092B5001092B400C2989F918F913F9133
S11302A02F910F900FBE0F901F901895E199FECFDC
S11302B01CBA8EBB6DBBE29AE19A0895E199FECF18
S11302C08EBBE09A8DB30895CF93DF93CDB7DEB79D
S11302D02D970FB6F894DEBF0FBECDBF87DF7DDF4D
S11302E0789401E018861E821F8210E0442443940F
S11302F00F2EF8EA6F2EF0E07F2EF02D01C000E003
S11303008091B900882309F4A4C11092B900002394
S113031009F440C06091B7007091B80080E090E0AB
S113032036D36093B0007093B1008093B200909381
S1130330B3006091B7007091B80080E090E027D3DB
S11303406093AC007093AD008093AE009093AF00C7
S11303506091B7007091B80080E090E018D360938A
S1130360A8007093A9008093AA009093AB00E8E9D9
S1130370F0E0A8E8B0E08091B7009091B8008193D4
S113038091938091B7009091B8008D939D93E61559
S1130390F70589F72091B7003091B8003A8729878B
S11303A020E030E040E05FE36091B0007091B10084
S11303B08091B2009091B300A0D36B017C01E985D8
S11303C0FA85BF0180E090E0E2D220E030E040E036
S11303D05FE393D39B01AC01C701B60144D26B0127
S11303E07C016093B0007093B1008093B20090934D
S11303F0B30010918700212F30E03A872987F90153
S1130400EE0FFF1FE856FF4F6081718180E090E09E
S1130410BED29B01AC01C701B6016BD3181684F49C
S113042089859A85880F991F88569F4F9A8789874F
S1130430C701B60180D2E985FA857183608321C042
S1130440E985FA85EE0FFF1FE857FF4F6081718140
S113045080E090E09CD29B01AC01C701B60167D259
S113046088237CF429853A85220F331F28573F4F70
S11304703A872987C701B6015ED2E985FA85718377
S11304806083809186008F5F883018F480938600A3
S113049021C0109286001F5F183018F41093870053
S11304A002C01092870080918700282F30E03A879D
S11304B02987C701B6013FD229853A85220F331F08
S11304C0F901E856FF4F71836083F901E857FF4F44
S11304D071836083388531115EC1E8E9F0E06081A1
S11304E0718180E090E053D2562E372E282E9983C6
S11304F0E8E8F0E06081718180E090E048D26A83AE
S11305007B838C839D830F2EFAE9AF2EF0E0BF2E00
S1130510F02D0F2EF8E88F2EF0E09F2EF02DF50130
S1130520619171915F0180E090E031D2062F172F25
S11305308D879987252D332D422D5981DAD21816AE
S1130540E4F0F4016281738180E090E020D2062F10
S1130550172F8D879987262F372F482F592F6A8178
S11305607B818C819D81C5D2181664F40A831B8318
S1130570FD85FC8329852D8305C0502E312E2D84C5
S11305803985398382E0880E911CA614B70439F6A4
S1130590BDC08AE080936000198201C04982A50130
S11305A09401C701B601C3D1880F880B182F1421F9
S11305B09981992309F4A3CEA5019401C701B60139
S11305C0B6D1882314F4C09801C0C09AEF81E11712
S11305D0E1F080916000882319F0815080936000DD
S11305E08FE690E067DD8E81880F812B8E83FDE09E
S11305F0F0938500409284004092830080918200B1
S11306008F5F80938200942D1CC0209183002983E6
S113061080918500281314C082E690E04BDD8E8122
S1130620880F812B8E833981385F309385008091C8
S113063084008F5F8093840010928200942D01C007
S113064090E0809183008F5F809383001F8300E09C
S113065001C090E0992309F453CE812F90E09A874A
S113066089874AE0BC0183E091E068DD8091600005
S1130670811147C0988591110EC08E818F708E3084
S113068009F040C084E690E015DDEAEBF0E010826A
S113069048861E8237C0F0908100EF2DF0E08091F3
S11306A08000E654FF4F29853A85082E02C0220FA8
S11306B0331F0A94E2F73A8729879081292B2083F4
S11306C08F5F809380008630E8F08BE690E0F2DC68
S11306D03E8130FD0BC061E770E083E091E057DDBF
S11306E0109281001092800018860CC0F394F0924E
S11306F0810010928000EF2DF0E0E654FF4F10824D
S113070001C01E8283E091E03DDDFACD8A819B81A8
S1130710AC81BD818093A8009093A900A093AA0006
S1130720B093AB00852D932DA22DB9818093AC009D
S11307309093AD00A093AE00B093AF002A813B81AB
S11307404C815D81652D732D822D9B2F8BD0698704
S11307507A878B879C8720E030E040E05FE3CDD14F
S11307602A813B814C815D817ED04B015C0120E07C
S113077030E040E85EE3652D732D822D9981BDD173
S11307809B01AC0169857A858B859C85B2D18823D0
S11307900CF004CFFECE8090A8009090A900A09009
S11307A0AA00B090AB00A50194016091AC007091D7
S11307B0AD008091AE009091AF0054D020E030E0C5
S11307C040E05FE39AD1A50194014DD04B015C0157
S11307D04982E5CE80E886BD16BCE3DC07DD3BDC60
S11307E069E770E083E091E0D2DC08958FEB9DE54A
S11307F00197F1F700C00000EDDF8FEF5FDD282FD8
S113080030E02F5F3F4F2430310524F060E08FEF5C
S11308104DDD04C061E0680F8FEF48DD9FEF29E6EE
S113082088E1915020408040E1F700C0000060E082
S11308308FEF3CDD91E001C09F5F8FEF890F813026
S113084041F028F0823039F0833039F008C0C09A82
S1130850F3CFC19AF1CFC29AEFCFC39A02C09430BA
S113086058F332DD5058BB27AA270ED008C1F9D05F
S113087030F0FED020F031F49F3F11F41EF4EEC0AE
S11308800EF4E095E7FBE4C0E92F0AD180F3BA1730
S1130890620773078407950718F071F49EF522C167
S11308A00EF4E0950B2EBA2FA02D0B01B901900187
S11308B00C01CA01A0011124FF27591B99F0593FCB
S11308C050F4503E68F11A16F040A22F232F342F13
S11308D04427585FF3CF469537952795A795F04061
S11308E05395C9F77EF41F16BA0B620B730B840B76
S11308F0BAF09150A1F0FF0FBB1F661F771F881F2E
S1130900C2F70EC0BA0F621F731F841F48F4879585
S113091077956795B795F7959E3F08F0B3CF939574
S1130920880F08F09927EE0F9795879508956CD056
S113093008F481E00895BCD088F09F5790F0B92F57
S11309409927B751A0F0D1F0660F771F881F991F20
S11309501AF0BA95C9F712C0B13081F0C3D0B1E032
S11309600895C0C0672F782F8827B85F39F0B93F42
S1130970CCF3869577956795B395D9F73EF4909522
S11309808095709561957F4F8F4F9F4F0895E894A0
S113099009C097FB3EF490958095709561957F4FC3
S11309A08F4F9F4F9923A9F0F92F96E9BB27939571
S11309B0F695879577956795B795F111F8CFFAF481
S11309C0BB0F11F460FF1BC06F5F7F4F8F4F9F4FB2
S11309D016C0882311F096E911C0772321F09EE810
S11309E0872F762F05C0662371F096E8862F70E076
S11309F060E02AF09A95660F771F881FDAF7880F50
S1130A009695879597F90895990F0008550FAA0BA5
S1130A10E0E8FEEF16161706E807F907C0F012160D
S1130A201306E407F50798F0621B730B840B950B10
S1130A3039F40A2661F0232B242B252B21F4089565
S1130A400A2609F4A140A6958FEF811D811D089502
S1130A5097F99F6780E870E060E008959FEF80EC6D
S1130A60089500240A941616170618060906089510
S1130A7000240A9412161306140605060895092E76
S1130A800394000C11F4882352F0BB0F40F4BF2BE5
S1130A9011F460FF04C06F5F7F4F8F4F9F4F089525
S1130AA057FD9058440F551F59F05F3F71F047951B
S1130AB0880F97FB991F61F09F3F79F08795089500
S1130AC0121613061406551FF2CF4695F1DF08C01F
S1130AD0161617061806991FF1CF8695710561053C
S1130AE008940895E894BB2766277727CB0197F9E4
S1130AF008958ADF08F48FEF08950AD0C0CFB1DFDC
S1130B0028F0B6DF18F0952309F0A2CFA7CFEBCFDA
S1130B10C7DFA8F39923D9F35523C9F3950F50E000
S1130B20551FAA27EE27FF27BB27002408946795A3
S1130B3020F4E20FF31FB41F0A1E220F331F441FB9
S1130B40AA1F6695A9F7779530F4F30FB41F0A1E10
S1130B50121E08F46395330F441FAA1F221F7695B3
S1130B6099F7879520F4B40F0A1E121E631F440FD1
S1130B70AA1F221F331F8695A9F7862F712D602D7A
S1130B8011249F5750408AF0E1F088234AF0EE0F79
S1130B90FF1FBB1F661F771F881F91505040A9F786
S1130BA09E3F510570F054CF9ECF5F3FECF3983ECB
S1130BB0DCF3869577956795B795F795E7959F5FED
S1130BC0C1F7FE2B880F911D9695879597F9089587
S1130BD04532510518F4423008F004C0FB0110827C
S1130BE0CB010895BB274A3031F4992322F4BDE2A6
S1130BF0909581959F4F01C0BB27FB015527AA27DC
S1130C00880F991FAA1FA41710F0A41B8395505195
S1130C10B9F7A05DAA3308F0A95DA193009779F70D
S1130C20B111B1931192CB0100C0DC01FC01672F1B
S1130C3071917723E1F7329704C07C916D937083AF
S1110C406291AE17BF07C8F30895F894FFCF72
S1130C4E0A0143003A5354415254003A425954450E
S1130C5E003A46494E4953480068656C6C6F000073
S9030000FC
