:100000000EC028C027C026C025C024C023C022C0DF
:10001000C5C020C0A1C01EC01DC01CC01BC0112473
:100020001FBECFE5D2E0DEBFCDBF10E0A0E6B0E05E
:10003000E8E8F3E102C005900D92A03AB107D9F7C4
:1000400021E0A0EAB0E001C01D92AE36B207E1F7B0
:1000500058D798C9D5CF91E001C09F5F8FEF890F26
:10006000823079F028F4882341F0813041F00FC0CC
:10007000833049F0843049F00AC0C098EECFC1986F
:10008000ECCFC298EACFC398E8CFC49802C09530AD
:1000900020F38FE19EE40197F1F700C0000091E0AA
:1000A00001C09F5F8FEF890F823079F028F4882399
:1000B00041F0813041F00FC0833049F0843049F085
:1000C0000AC0C09AEECFC19AECCFC29AEACFC39AC7
:1000D000E8CFC49A0895953020F30895B89AB99A54
:1000E000BA9ABB9ABC9A91E001C09F5F8FEF890FCB
:1000F000823079F028F4882341F0813041F00FC03C
:10010000833049F0843049F00AC0C09AEECFC19ADA
:10011000ECCFC29AEACFC39AE8CFC49A089595303B
:1001200020F3089582E08ABD93E699BD83BF89B725
:10013000806189BF089582E08ABD93E699BD83BF3F
:1001400089B78F7E89BF089580B58E7F80BD17B82F
:100150003D988FE886B908951F920F920FB60F92BF
:1001600011248F9380916D01882319F0823019F04A
:1001700004C0C59A02C0C598369A80916D018F5F00
:1001800080936D0180916D018E3710F010926D019A
:100190008F910F900FBE0F901F9018951F920F9286
:1001A0000FB60F9211242F933F934F935F938F932A
:1001B0009F9324B135B18091D600811135C02A308A
:1001C000310528F48091D800811105C04EC080917E
:1001D000D800811154C08091610090916200019615
:1001E0009093620080936100809161009091620021
:1001F000883E934030F088EE93E0909362008093C5
:1002000061008091D800811146C080916100909179
:10021000620085369105E0F53EC0809161009091C5
:1002200062000B97E8F540C044B155B12091D4006D
:100230003091D500240F351F3093D5002093D40082
:100240008F5F8093D600803210F4369A40C081E0F0
:100250008093DB003093DA002093D9001092D50010
:100260001092D4001092D60032C081E08093D80062
:1002700081E090E09093620080936100ACCF109297
:10028000D80081E090E09093620080936100A3CF5A
:100290001092D7000CC08091D8008111BECF04C04D
:1002A00082E08093D70003C081E08093D70084B1BF
:1002B00095B12091D4003091D500820F931F909377
:1002C000D5008093D40081E08093D600BECF9F916B
:1002D0008F915F914F913F912F910F900FBE0F9093
:1002E0001F901895E199FECF1CBA8EBB6DBBE29AA8
:1002F000E19A0895E199FECF8EBBE09A8DB30895FF
:100300001F93CF93DF9380E0F5DF8093DC009FEFB6
:10031000980F9E3F20F5282F30E0280F311D280F21
:10032000311D220F331F12161306CCF5C0E0D0E0AA
:1003300010E01F5F812FDEDFC352DF4F8883C12FA4
:10034000D0E02091DC00822F90E0820F911D820F7F
:10035000911D880F991FC817D9075CF320C08091A1
:100360009F008093DC00482F50E0480F511D480F3C
:10037000511D440F551F141615068CF480E090E0B3
:1003800020E0FC01E352FF4FDC01AD59BF4F8C91DF
:1003900080832F5F822F90E08417950794F3DF917D
:1003A000CF911F9108952F923F924F925F926F923B
:1003B0007F928F929F92AF92BF92CF92DF92EF92F5
:1003C000FF920F931F93CF93DF9300D000D000D004
:1003D000CDB7DEB78091D700811155C321E01C82D3
:1003E0001A821B821982992493940F2EF8EC2F2ED7
:1003F000F0E03F2EF02D05C01C828091D7008111C6
:1004000044C38091DB00882309F4A9C11092DB006A
:10041000222309F440C06091D9007091DA0080E095
:1004200090E068D66093D0007093D1008093D200A2
:100430009093D3006091D9007091DA0080E090E051
:1004400059D66093CC007093CD008093CE009093EA
:10045000CF006091D9007091DA0080E090E04AD638
:100460006093C8007093C9008093CA009093CB003A
:10047000E8EBF0E0A8EAB0E08091D9009091DA00D2
:10048000819391938091D9009091DA008D939D93FF
:100490002E163F0689F78091D9009091DA009E834D
:1004A0008D8320E030E040E05FE36091D000709108
:1004B000D1008091D2009091D300D2D66B017C0103
:1004C000ED81FE81BF0180E090E014D620E030E0B5
:1004D00040E05FE3C5D69B01AC01C701B60176D50C
:1004E0006B017C016093D0007093D1008093D200A7
:1004F0009093D3001091A700212F30E03E832D83ED
:10050000F901EE0FFF1FE854FF4F6081718180E019
:1005100090E0F0D59B01AC01C701B6019DD618163D
:1005200084F48D819E81880F991F88549F4F9E83EC
:100530008D83C701B601B2D5ED81FE8171836083E1
:1005400021C0ED81FE81EE0FFF1FE855FF4F608156
:10055000718180E090E0CED59B01AC01C701B6016E
:1005600099D588237CF42D813E81220F331F285595
:100570003F4F3E832D83C701B60190D5ED81FE81AB
:10058000718360838091A6008F5F883018F4809318
:10059000A60024C01092A6001F5F183018F4109314
:1005A000A70002C01092A700F091A7002F2F30E003
:1005B0003E832D83C701B60171D5ED81FE81EE0F1B
:1005C000FF1FFE83ED83E854FF4F718360832D810D
:1005D0003E8128553F4FF90171836083FC81F11101
:1005E00097C2E8EBF0E06081718180E090E082D515
:1005F000B62EA72E882E9983E8EAF0E060817181FB
:1006000080E090E077D5762E672E582E492E2AEB83
:1006100030E008EA10E03E832D83ED81FE81619198
:100620007191FE83ED8380E090E064D5C62ED72ED5
:10063000E82EF92E2B2D3A2D482D59810DD618165E
:10064000D4F0F8016281738180E090E053D5C62E2A
:10065000D72EE82EF92E262F372F482F592F672D0A
:10066000762D852D942DF8D518164CF47C2C6D2CF8
:100670005E2C4F2C04C0BC2CAD2C8E2CF9820E5F4E
:100680001F4F2D813E812215330539F600C2C19AD4
:100690003AE0309360001D8201C09D82C090D0007E
:1006A000D090D100E090D200F090D300A30192014D
:1006B000C701B601EFD4880F880B892189838D810A
:1006C000882309F444C2A3019201C701B601E2D410
:1006D000882314F4C09801C0C09A9981EB819E17B9
:1006E000E9F080916000882329F0815080936000B8
:1006F000C19A01C0C1988A81880FF981F82BFA83C9
:100700002DE02093A5009092A4009092A3008091E8
:10071000A2008F5F8093A200992D18C08091A30042
:100720009091A500891311C09A81990F3981392BB5
:100730003A83885F8093A5008091A4008F5F8093A7
:10074000A4001092A200992D01C090E08091A30016
:100750008F5F8093A30089818B8320E001C090E0AC
:10076000992309F44ACE80916000882319F0C19A38
:100770001A8243CE9C8191110BC08A818F708E307A
:1007800009F03BCEEDEDF0E010829C821A8235CE6E
:10079000F091A100FD83EF2FF0E03091A000DF0188
:1007A000A352BF4F8981482F50E0032E02C0440F4F
:1007B000551F0A94E2F78C91482B4C933F5F30937E
:1007C000A000363008F419CE9A8190FDF4C031961D
:1007D000CF0166E070E0AFD5892B09F449C002C0B3
:1007E0009F5F01C091E08FEF890F823079F028F48C
:1007F000882341F0813041F00FC0833049F08430CC
:1008000049F00AC0C09AECCFC19AEACFC29AE8CFA9
:10081000C39AE6CFC49A02C0953010F38091D700F6
:10082000823009F0BCC0C098C19AFFEF30E782E087
:10083000F15030408040E1F700C00000C09AC198FC
:100840009FEFE0E7F2E09150E040F040E1F700C0B8
:100850000000C098C19A3FEF80E792E0315080409D
:100860009040E1F700C00000C09AC19A892D9CC059
:10087000363019F448C09F5F01C091E08FEF890FB7
:10088000823079F028F4882341F0813041F00FC0A4
:10089000833049F0843049F00AC0C09AECCFC19A45
:1008A000EACFC29AE8CFC39AE6CFC49A02C0953085
:1008B00010F38091D700823009F073C0C098C19ABC
:1008C000FFEF30E782E0F15030408040E1F700C0B8
:1008D0000000C09AC1989FEFE0E7F2E09150E0403D
:1008E000F040E1F700C00000C098C19A3FEF80E7F8
:1008F00092E0315080409040E1F700C00000C09A83
:10090000C19A892D51C0E639F10524F480E04CC02C
:100910009F5F01C091E08FEF890F823079F028F45A
:10092000882341F0813041F00FC0833049F084309A
:1009300049F00AC0C09AECCFC19AEACFC29AE8CF78
:10094000C39AE6CFC49A02C0953010F38091D700C5
:10095000823049F5C098C19AFFEF30E782E0F1504C
:1009600030408040E1F700C00000C09AC1989FEF7E
:10097000E0E7F2E09150E040F040E1F700C0000015
:10098000C098C19A3FEF80E792E03150804090409C
:10099000E1F700C00000C09AC19A892D05C0892DD9
:1009A00003C0892D01C0892D1092A1001092A000D2
:1009B000882369F021CDED81EF5FED83E093A10005
:1009C0001092A000F0E0E352FF4F108216CDED81AF
:1009D000E983B1DB60E080E085DCF9810F2F10E076
:1009E0000F5F1F4F80E090E0198239813F5F3983AC
:1009F000FC01E352FF4F6081832F74DCE9818E2F6D
:100A000090E0801791078CF3C80166E070E093D402
:100A100080E068DC91E003C08FE01DC09F5F8FEF36
:100A2000890F823079F028F4882341F0813041F039
:100A30000FC0833049F0843049F00AC0C09AEECF2D
:100A4000C19AECCFC29AEACFC39AE8CFC49AE4CF56
:100A5000953020F3E1CFC298FFE728E331E0F15071
:100A600020403040E1F700C00000C29A9FE7E8E371
:100A7000F1E09150E040F040E1F700C0000081500B
:100A800051F781E066C080E064C080E062C08B2DD9
:100A90009A2DA82DB9818093CC009093CD00A0937E
:100AA000CE00B093CF00872D962DA52DB42D809329
:100AB000C8009093C900A093CA00B093CB00272D23
:100AC000362D452D542D6B2D7A2D882D99817DD273
:100AD0006B017C0120E030E040E05FE3C1D3272DD3
:100AE000362D452D542D72D22B013C012DEC3CECC2
:100AF0004CE45EE36B2D7A2D882D9981B1D39B0157
:100B0000AC01C701B601A8D388230CF0C6CDBFCD78
:100B1000C090C800D090C900E090CA00F090CB000F
:100B2000A70196016091CC007091CD008091CE001C
:100B30009091CF004AD220E030E040E05FE390D3D4
:100B4000A701960143D22B013C019D82A7CD20E055
:100B500054CC26960FB6F894DEBF0FBECDBFDF9102
:100B6000CF911F910F91FF90EF90DF90CF90BF90AA
:100B7000AF909F908F907F906F905F904F903F903D
:100B80002F900895EFE3FCE93197F1F700C00000E2
:100B9000A091DC0051E0580F5A17F0F4252F30E0F7
:100BA000250F311D250F311D220F331FF901E3528F
:100BB000FF4F2D513F4F40E091919F7111F44F5FD6
:100BC00001C040E0E217F307B9F7463020F45F5F59
:100BD0005A1720F301C0A52F982F990F890F880F5E
:100BE0005A2F550F5A0F550F851708F074C0E52F6F
:100BF000F0E0E452FF4FE08141E020E030E0F0E03F
:100C000003C02F5F3F4F4F5FBF01022E02C075959B
:100C100067950A94E2F760FF17C0223079F028F454
:100C2000222341F0213041F026C0233049F0243006
:100C300049F021C0C098E5CFC198E3CFC298E1CF79
:100C4000C398DFCFC49819C0223079F028F422234A
:100C500041F0213041F00FC0233049F0243049F0F9
:100C60000AC0C09ACECFC19ACCCFC29ACACFC39A7B
:100C7000C8CFC49A02C0453020F2EFE0FEE03197C1
:100C8000F1F700C0000021E001C02F5F9FEF920F3D
:100C9000923079F028F4992341F0913041F00FC05F
:100CA000933049F0943049F00AC0C09AEECFC19A0F
:100CB000ECCFC29AEACFC39AE8CFC49A02C02530DB
:100CC00020F3E7EEF3E03197F1F700C00000515058
:100CD000851708F48CCF8A2F08951F93CF93DF9345
:100CE000D091D700D13009F047C080E090E010E00B
:100CF000C091D8009C17B0F52FEB37E591E021505B
:100D000030409040E1F700C000003CDF9091DC00F3
:100D1000891708F0812F2D2F01C02F5F9FEF920FB1
:100D2000923079F028F4992341F0913041F00FC0CE
:100D3000933049F0943049F00AC0C09AEECFC19A7E
:100D4000ECCFC29AEACFC39AE8CFC49A02C025304A
:100D500020F32FEF33EF91E0215030409040E1F746
:100D600000C000002AE12A95F1F700C02091D700C9
:100D70009C2F213009F4BCCFDF91CF911F910895B2
:100D8000E3D9D0D97894BCDA91E001C09F5F8FEFAE
:100D9000890F823079F028F4882341F0813041F0C6
:100DA0000FC0833049F0843049F00AC0C09AEECFBA
:100DB000C19AECCFC29AEACFC39AE8CFC49A02C0D4
:100DC000953020F38091D700813031F018F08230D7
:100DD00039F04DC0E8DAD8CF80DFD6CF9F5F01C0B1
:100DE00091E08FEF890F823079F028F4882341F069
:100DF000813041F00FC0833049F0843049F00AC09F
:100E0000C09AECCFC19AEACFC29AE8CFC39AE6CF94
:100E1000C49A02C0953010F38091D700823009F057
:100E2000B3CFC098C19A2FEF80E792E02150804065
:100E30009040E1F700C00000C09AC1982FEF80E712
:100E400092E0215080409040E1F700C00000C0983F
:100E5000C19A2FEF80E792E0215080409040E1F767
:100E600000C00000C09AC19A8FCF9F5F01C091E07F
:100E70008FEF890F823079F028F4882341F0813098
:100E800041F00FC0833049F0843049F00AC0C09A65
:100E9000ECCFC19AEACFC29AE8CFC39AE6CFC49A00
:100EA00002C0953010F38091D700823009F06CCFEA
:100EB000C098C19A2FEF80E792E021508040904087
:100EC000E1F700C00000C09AC1982FEF80E792E0E0
:100ED000215080409040E1F700C00000C098C19AC6
:100EE0002FEF80E792E0215080409040E1F700C072
:100EF0000000C09AC19A48CF80E886BD16BCEED8E3
:100F000008958FEB9DE50197F1F700C00000F4DF35
:100F1000A2D88FEFEFD9C82F843010F4C09801C049
:100F2000C4988C2F90E00196059724F060E08FEF35
:100F3000D9D904C061E06C0F8FEFD4D99FEF29E6B7
:100F400038E1915020403040E1F700C0000060E0FF
:100F50008FEFC8D991E001C09F5F8FEF890F82307A
:100F600079F028F4882341F0813041F00FC08330BC
:100F700049F0843049F00AC0C09AEECFC19AECCF54
:100F8000C29AEACFC39AE8CFC49A02C0953020F340
:100F9000C430D1F46FEF80E0A5D985E0C4989FEF0D
:100FA00021EE34E0915020403040E1F700C00000D5
:100FB000C49A9FEF21EE34E0915020403040E1F799
:100FC00000C00000815051F7DBDE5058BB27AA2734
:100FD0000ED008C1F9D030F0FED020F031F49F3FA0
:100FE00011F41EF4EEC00EF4E095E7FBE4C0E92F27
:100FF0000AD180F3BA17620773078407950718F0C0
:1010000071F49EF522C10EF4E0950B2EBA2FA02D9F
:101010000B01B90190010C01CA01A0011124FF27A5
:10102000591B99F0593F50F4503E68F11A16F040A0
:10103000A22F232F342F4427585FF3CF469537959F
:101040002795A795F0405395C9F77EF41F16BA0B64
:10105000620B730B840BBAF09150A1F0FF0FBB1F12
:10106000661F771F881FC2F70EC0BA0F621F731F5B
:10107000841F48F4879577956795B795F7959E3FB8
:1010800008F0B3CF9395880F08F09927EE0F979546
:10109000879508956CD008F481E00895BCD088F05D
:1010A0009F5790F0B92F9927B751A0F0D1F0660F54
:1010B000771F881F991F1AF0BA95C9F712C0B1306F
:1010C00081F0C3D0B1E00895C0C0672F782F882782
:1010D000B85F39F0B93FCCF3869577956795B395AE
:1010E000D9F73EF490958095709561957F4F8F4F1D
:1010F0009F4F0895E89409C097FB3EF49095809522
:10110000709561957F4F8F4F9F4F9923A9F0F92FCD
:1011100096E9BB279395F695879577956795B7954B
:10112000F111F8CFFAF4BB0F11F460FF1BC06F5F31
:101130007F4F8F4F9F4F16C0882311F096E911C043
:10114000772321F09EE8872F762F05C0662371F064
:1011500096E8862F70E060E02AF09A95660F771F78
:10116000881FDAF7880F9695879597F90895990F54
:101170000008550FAA0BE0E8FEEF16161706E80761
:10118000F907C0F012161306E407F50798F0621B82
:10119000730B840B950B39F40A2661F0232B242B57
:1011A000252B21F408950A2609F4A140A6958FEF76
:1011B000811D811D089597F99F6780E870E060E0C8
:1011C00008959FEF80EC089500240A9416161706E0
:1011D00018060906089500240A9412161306140628
:1011E00005060895092E0394000C11F4882352F08B
:1011F000BB0F40F4BF2B11F460FF04C06F5F7F4F43
:101200008F4F9F4F089557FD9058440F551F59F029
:101210005F3F71F04795880F97FB991F61F09F3FE3
:1012200079F087950895121613061406551FF2CF0C
:101230004695F1DF08C0161617061806991FF1CF5C
:1012400086957105610508940895E894BB27662783
:101250007727CB0197F908958ADF08F48FEF089577
:101260000AD0C0CFB1DF28F0B6DF18F0952309F01F
:10127000A2CFA7CFEBCFC7DFA8F39923D9F355238C
:10128000C9F3950F50E0551FAA27EE27FF27BB276C
:1012900000240894679520F4E20FF31FB41F0A1E80
:1012A000220F331F441FAA1F6695A9F7779530F4C4
:1012B000F30FB41F0A1E121E08F46395330F441F68
:1012C000AA1F221F769599F7879520F4B40F0A1E5E
:1012D000121E631F440FAA1F221F331F8695A9F7F2
:1012E000862F712D602D11249F5750408AF0E1F018
:1012F00088234AF0EE0FFF1FBB1F661F771F881F52
:1013000091505040A9F79E3F510570F054CF9ECFA9
:101310005F3FECF3983EDCF3869577956795B7953C
:10132000F795E7959F5FC1F7FE2B880F911D969566
:10133000879597F9089597FB072E16F4009406D029
:1013400077FD08D00BD007FC05D03EF49095819531
:101350009F4F0895709561957F4F0895AA1BBB1B01
:1013600051E107C0AA1FBB1FA617B70710F0A61BA5
:10137000B70B881F991F5A95A9F780959095BC01C6
:08138000CD010895F894FFCFA0
:101388000A64001017151D0100001E05051E000F38
:101398001810180F000E1111111100001F1515114A
:1013A8000000000000000000000000000000000035
:1013B8000000000000000000000000000000000520
:00000001FF
