S013000053657269616C44656275672E73726563CA
S11300000EC028C027C026C025C024C023C022C0DB
S1130010B3C020C08FC01EC01DC01CC01BC0112493
S11300201FBECFE5D2E0DEBFCDBF10E0A0E6B0E05A
S1130030EEEDF5E002C005900D92AE39B107D9F7A7
S113004020E0AEE9B0E001C01D92A23FB207E1F7A3
S11300505ED2C3C2D5CF91E001C09F5F8FEF890FFD
S1130060823079F028F4882341F0813041F00FC0C8
S1130070833049F0843049F00AC0C098EECFC1986B
S1130080ECCFC298EACFC398E8CFC49802C09530A9
S113009020F38FE19EE40197F1F700C0000091E0A6
S11300A001C09F5F8FEF890F823079F028F4882395
S11300B041F0813041F00FC0833049F0843049F081
S11300C00AC0C09AEECFC19AECCFC29AEACFC39AC3
S11300D0E8CFC49A0895953020F30895B89AB99A50
S11300E0BA9ABB9ABC9A91E001C09F5F8FEF890FC7
S11300F0823079F028F4882341F0813041F00FC038
S1130100833049F0843049F00AC0C09AEECFC19AD6
S1130110ECCFC29AEACFC39AE8CFC49A0895953037
S113012020F3089580B58E7F80BD17B83D988FE881
S113013086B908951F920F920FB60F9211248F93D0
S11301408091F100882319F0823019F004C0C59A17
S113015002C0C598369A8091F1008F5F8093F100B8
S11301608091F1008E3710F01092F1008F910F9072
S11301700FBE0F901F9018951F920F920FB60F92FB
S113018011242F933F934F935F938F939F9324B1A5
S113019035B18091A30081110AC02A30310520F4C1
S11301A081E08093A40024C01092A40021C044B133
S11301B055B12091A1003091A200240F351F309336
S11301C0A2002093A1008F5F8093A300803210F4DB
S11301D0369A1EC081E08093A7003093A600209336
S11301E0A5001092A2001092A1001092A30010C0CA
S11301F084B195B12091A1003091A200820F931F88
S11302009093A2008093A10081E08093A300E0CFAB
S11302109F918F915F914F913F912F910F900FBEBE
S11302200F901F901895E199FECF1CBA8EBB6DBB41
S1130230E29AE19A0895E199FECF8EBBE09A8DB3DC
S113024008951F93CF93DF9380E0F5DF8093A80098
S11302509FEF980F9E3F20F5282F30E0280F311D87
S1130260280F311D220F331F12161306CCF5C0E0E0
S1130270D0E010E01F5F812FDEDFC755DF4F88839A
S1130280C12FD0E02091A800822F90E0820F911D11
S1130290820F911D880F991FC817D9075CF320C0DE
S11302A080919C008093A800482F50E0480F511D76
S11302B0480F511D440F551F141615068CF480E089
S11302C090E020E0FC01E755FF4FDC01A05ABF4F4E
S11302D08C9180832F5F822F90E08417950794F38D
S11302E0DF91CF911F910895EFE3FCE93197F1F786
S11302F000C00000A091A80051E0580F5A17F0F474
S1130300252F30E0250F311D250F311D220F331FFE
S1130310F901E755FF4F21553F4F40E091919F71FF
S113032011F44F5F01C040E0E217F307B9F746301C
S113033020F45F5F5A1720F301C0A52F982F990F5F
S1130340890F880F5A2F550F5A0F550F851708F02C
S113035074C0E52FF0E0E855FF4FE08141E020E074
S113036030E0F0E003C02F5F3F4F4F5FBF01022E2C
S113037002C0759567950A94E2F760FF17C02230B2
S113038079F028F4222341F0213041F026C02330B3
S113039049F0243049F021C0C098E5CFC198E3CF9B
S11303A0C298E1CFC398DFCFC49819C0223079F046
S11303B028F4222341F0213041F00FC0233049F0CA
S11303C0243049F00AC0C09ACECFC19ACCCFC29A89
S11303D0CACFC39AC8CFC49A02C0453020F2EFE016
S11303E0FEE03197F1F700C0000021E001C02F5F6B
S11303F09FEF920F923079F028F4992341F09130D5
S113040041F00FC0933049F0943049F00AC0C09ACB
S1130410EECFC19AECCFC29AEACFC39AE8CFC49A7E
S113042002C0253020F3E7EEF3E03197F1F700C086
S113043000005150851708F48CCF8A2F089580E06E
S113044020E0C0E011E0B59B0AC09091A0009F5F3E
S11304509093A000C0939F00923368F410C09091D1
S11304609F009F5F90939F00C093A000923338F049
S113047010939E0004C0C0939E002C2F3DC0D091C9
S11304809E002D17C0F52FEB37E591E02150304049
S11304909040E1F700C0000027DF9091A800891781
S11304A008F08C2F21E001C02F5F9FEF920F923054
S11304B079F028F4992341F0913041F00FC0933042
S11304C049F0943049F00AC0C09AEECFC19AECCFFB
S11304D0C29AEACFC39AE8CFC49A02C0253020F367
S11304E02FEF33EF91E0215030409040E1F700C00E
S11304F000002D2F01C02D2F3AE13A95F1F700C0ED
S1130500A2CF80E886BD16BCE9DD0CDE08958FEB32
S11305109DE50197F1F700C00000F3DF9CDD8FEF4C
S11305208ADEC82F843010F4C09801C0C4988C2F80
S113053090E00196059724F060E08FEF74DE04C02C
S113054061E06C0F8FEF6FDE9FEF29E638E1915089
S113055020403040E1F700C0000060E08FEF63DE30
S113056091E001C09F5F8FEF890F823079F028F40A
S1130570882341F0813041F00FC0833049F084304A
S113058049F00AC0C09AEECFC19AECCFC29AEACF22
S1130590C39AE8CFC49A02C0953020F3C530D1F491
S11305A06FEF80E040DE85E0C4989FEF21EE34E0F9
S11305B0915020403040E1F700C00000C49A9FEF02
S11305C021EE34E0915020403040E1F700C00000BB
S11105D0815051F736DEC59A32DFF894FFCF22
S11305DE1017151D0100001E05051E000F1810181A
S11305EE0F000E1111111100001F1515110000003E
S11305FE00000000000000000000000000000000E9
S111060E0000000000000000000000000500D5
S9030000FC
