S013000053657269616C44656275672E73726563CA
S11300000EC028C027C026C025C024C023C022C0DB
S1130010BCC020C098C01EC01DC01CC01BC0112481
S11300201FBECFE5D2E0DEBFCDBF10E0A0E6B0E05A
S1130030E8EAF4E002C005900D92AE39B107D9F7B1
S113004020E0AEE9B0E001C01D92A23FB207E1F7A3
S1130050C5D128C2D5CF91E001C09F5F8FEF890F32
S1130060823079F028F4882341F0813041F00FC0C8
S1130070833049F0843049F00AC0C098EECFC1986B
S1130080ECCFC298EACFC398E8CFC49802C09530A9
S113009020F38FE19EE40197F1F700C0000091E0A6
S11300A001C09F5F8FEF890F823079F028F4882395
S11300B041F0813041F00FC0833049F0843049F081
S11300C00AC0C09AEECFC19AECCFC29AEACFC39AC3
S11300D0E8CFC49A0895953020F30895B89AB99A50
S11300E0BA9ABB9ABC9A91E001C09F5F8FEF890FC7
S11300F0823079F028F4882341F0813041F00FC038
S1130100833049F0843049F00AC0C09AEECFC19AD6
S1130110ECCFC29AEACFC39AE8CFC49A0895953037
S113012020F3089582E08ABD93E699BD83BF89B721
S1130130806189BF089580B58E7F80BD17B83D98D2
S11301408FE886B908951F920F920FB60F9211246B
S11301508F938091F100882319F0823019F004C044
S1130160C59A02C0C598369A8091F1008F5F80933A
S1130170F1008091F1008E3710F01092F1008F9110
S11301800F900FBE0F901F9018951F920F920FB6ED
S11301900F9211242F933F938F939F9324B135B1E2
S11301A08091A000811134C02A30310508F05DC06F
S11301B08091A400811159C04EC08091A2009091F9
S11301C0A30001969093A3008093A2008091A200C3
S11301D09091A300893E934030F088EE93E0909391
S11301E0A3008093A2008091A40081114AC0809151
S11301F0A2009091A3008536910508F03FC041C04C
S11302008091A2009091A3000B9708F042C03DC0DA
S113021024B135B180919E0090919F00280F391F21
S113022030939F0020939E008091A0008F5F809365
S1130230A000803210F4369A30C081E08093A70089
S11302403093A6002093A50010929F0010929E0068
S11302501092A00022C081E08093A40081E090E08D
S11302609093A3008093A200A8CF1092A40081E0F1
S113027090E09093A3008093A2009FCF1092A100DE
S1130280C7CF8091A4008111BBCF81E08093A100EE
S1130290BFCF82E08093A100BBCF9F918F913F910C
S11302A02F910F900FBE0F901F901895E199FECFDC
S11302B01CBA8EBB6DBBE29AE19A0895E199FECF18
S11302C08EBBE09A8DB308951F93CF93DF9380E0A4
S11302D0F5DF8093A8009FEF980F9E3F20F5282F0D
S11302E030E0280F311D280F311D220F331F121645
S11302F01306CCF5C0E0D0E010E01F5F812FDEDFF5
S1130300C755DF4F8883C12FD0E02091A800822FEA
S113031090E0820F911D820F911D880F991FC817BD
S1130320D9075CF320C080919C008093A800482FDB
S113033050E0480F511D480F511D440F551F14160E
S113034015068CF480E090E020E0FC01E755FF4FB7
S1130350DC01A05ABF4F8C9180832F5F822F90E0E5
S11303608417950794F3DF91CF911F910895E3DEED
S1130370D9DE7894A9DF91E001C09F5F8FEF890FE8
S1130380823079F028F4882341F0813041F00FC0A5
S1130390833049F0843049F00AC0C09AEECFC19A44
S11303A0ECCFC29AEACFC39AE8CFC49A02C0953080
S11303B020F38091A100813031F018F0823029F0CF
S11303C006C0C098D8CFC198D6CFC298D4CFC3980E
S11303D0D2CF80E886BD16BC81DE08958FEB9DE503
S11303E00197F1F700C00000F4DF35DE8FEF66DF20
S11303F0C82F843010F4C09801C0C4988C2F90E0AA
S11304000196059724F060E08FEF50DF04C061E0AF
S11304106C0F8FEF4BDF9FEF29E638E191502040BE
S11304203040E1F700C0000060E08FEF3FDF91E073
S113043001C09F5F8FEF890F823079F028F4882301
S113044041F0813041F00FC0833049F0843049F0ED
S11304500AC0C09AEECFC19AECCFC29AEACFC39A2F
S1130460E8CFC49A02C0953020F3C430D1F46FEFC2
S113047080E01CDF85E0C4989FEF21EE34E09150CA
S113048020403040E1F700C00000C49A9FEF21EE05
S113049034E0915020403040E1F700C0000081502A
S10B04A051F765DFF894FFCF6A
S11304A81017151D0100001E05051E000F18101851
S11304B80F000E1111111100001F15151100000075
S11304C80000000000000000000000000000000020
S11104D800000000000000000000000005000D
S9030000FC
