:100000000EC028C027C026C025C024C023C022C0DF
:10001000AFC020C08BC01EC01DC01CC01BC011249F
:100020001FBECFE5D2E0DEBFCDBF10E0A0E6B0E05E
:10003000E2E0F2E102C005900D92AE39B107D9F7C6
:1000400021E0AEE9B0E001C01D92A632B207E1F7AF
:100050004CD6D5C8D5CF91E001C09F5F8FEF890FF7
:10006000813041F028F0823039F0833039F008C017
:10007000C098F3CFC198F1CFC298EFCFC39802C018
:10008000943058F38FE19EE40197F1F700C000002F
:1000900091E001C09F5F8FEF890F813041F028F020
:1000A000823039F0833039F008C0C09AF3CFC19A5A
:1000B000F1CFC29AEFCFC39A0895943058F30895C0
:1000C000B89AB99ABA9ABB9A91E001C09F5F8FEF34
:1000D000890F813041F028F0823039F0833039F0D7
:1000E00008C0C09AF3CFC19AF1CFC29AEFCFC39A9A
:1000F0000895943058F3089582E08ABD93E699BD3F
:1001000083BF89B7806189BF089582E08ABD93E685
:1001100099BD83BF89B78F7E89BF089580B58E7FD3
:1001200080BD17B83D988FE886B908951F920F9249
:100130000FB60F9211248F9380912501882319F017
:10014000823019F004C0C59A02C0C598369A8091D1
:1001500025018F5F80932501809125018E3710F056
:10016000109225018F910F900FBE0F901F90189540
:100170001F920F920FB60F9211242F933F934F931C
:100180005F938F939F9324B135B18091D7008111F4
:100190000AC02A30310520F481E08093D80024C0C1
:1001A0001092D80021C044B155B12091D5003091B2
:1001B000D600240F351F3093D6002093D5008F5FD3
:1001C0008093D700803210F4369A1EC081E080936D
:1001D000DB003093DA002093D9001092D600109201
:1001E000D5001092D70010C084B195B12091D500F0
:1001F0003091D600820F931F9093D6008093D50044
:1002000081E08093D700E0CF9F918F915F914F91D4
:100210003F912F910F900FBE0F901F901895E1996D
:10022000FECF1CBA8EBB6DBBE29AE19A0895E199AC
:10023000FECF8EBBE09A8DB308952F923F924F92DE
:100240005F926F927F928F929F92AF92BF92CF9266
:10025000DF92EF92FF920F931F93CF93DF9300D023
:1002600000D000D0CDB7DEB759DF46DF789421E06B
:100270001C821A821B821982992493940F2EF9EC06
:100280002F2EF0E03F2EF02D8091DB00882309F423
:10029000EBC11092DB00222309F455C36091D90011
:1002A0007091DA0080E090E062D66093D1007093A4
:1002B000D2008093D3009093D4006091D9007091C4
:1002C000DA0080E090E053D66093CD007093CE00CA
:1002D0008093CF009093D0006091D9007091DA00A4
:1002E00080E090E044D66093C9007093CA00809388
:1002F000CB009093CC00E9EBF0E0A9EAB0E080916C
:10030000D9009091DA00819391938091D9009091D6
:10031000DA008D939D932E163F0689F78091D800C1
:100320008823E9F191E001C09F5F8FEF890F813051
:1003300041F028F0823039F0833039F008C0C09A9B
:10034000F3CFC19AF1CFC29AEFCFC39A02C39430D0
:1003500058F3FFC2C098C19A4FEF60E792E0415056
:1003600060409040E1F700C00000C09AC198EFEFF4
:10037000F0E722E0E150F0402040E1F700C000004B
:10038000C098C19A3FEF40E762E031504040604082
:10039000E1F700C00000C09AC19A8150D9F680915F
:1003A000D9009091DA009E838D8320E030E040E018
:1003B0005FE36091D1007091D2008091D300909161
:1003C000D4008BD66B017C01ED81FE81BF0180E002
:1003D00090E0CDD520E030E040E05FE37ED69B01A9
:1003E000AC01C701B6012FD56B017C016093D10030
:1003F0007093D2008093D3009093D4001091A80002
:10040000212F30E03E832D83F901EE0FFF1FE754CB
:10041000FF4F6081718180E090E0A9D59B01AC0124
:10042000C701B60156D6181684F48D819E81880FB7
:10043000991F87549F4F9E838D83C701B6016BD54B
:10044000ED81FE817183608321C0ED81FE81EE0F1D
:10045000FF1FE755FF4F6081718180E090E087D5F5
:100460009B01AC01C701B60152D588237CF42D81D4
:100470003E81220F331F27553F4F3E832D83C701F7
:10048000B60149D5ED81FE81718360838091A7001B
:100490008F5F883018F48093A70021C01092A700C6
:1004A0001F5F183018F41093A80002C01092A80023
:1004B0008091A800282F30E03E832D83C701B6012C
:1004C0002AD52D813E81220F331FF901E754FF4FBA
:1004D00071836083F901E755FF4F718360833C812D
:1004E000311139C2E9EBF0E06081718180E090E088
:1004F0003ED5B62EA72E882E9983E9EAF0E06081DA
:10050000718180E090E033D5762E672E582E492EEB
:100510002BEB30E009EA10E03E832D83ED81FE8174
:1005200061917191FE83ED8380E090E020D5C62E2D
:10053000D72EE82EF92E262F372F482F592F6B2D27
:100540007A2D882D9981E3D48823D4F0F801628133
:10055000738180E090E00BD5C62ED72EE82EF92EC1
:10056000262F372F482F592F672D762D852D942D27
:10057000B0D518164CF47C2C6D2C5E2C4F2C04C07E
:10058000BC2CAD2C8E2CF9820E5F1F4F2D813E812D
:100590002216330619F6FEC1C19A3AE03093600084
:1005A0001D8201C09D82C090D100D090D200E09009
:1005B000D300F090D400A3019201C701B601A7D4E3
:1005C000880F880B892189834D81442309F427C230
:1005D000A3019201C701B6019AD4882314F4C098EC
:1005E00001C0C09A69818B816817E9F08091600031
:1005F000882329F0815080936000C19A01C0C1987E
:100600008A81880F9981982B9A83EDE0E093A60068
:100610009092A5009092A4008091A3008F5F809398
:10062000A300992D18C08091A4009091A600891371
:1006300011C09A81990FF981F92BFA83885F809311
:10064000A6008091A5008F5F8093A5001092A30063
:10065000992D01C090E08091A4008F5F8093A40049
:1006600029812B8320E001C090E0992309F40CCE6E
:1006700080916000882319F0C19A1A8205CE3C81CE
:1006800031110BC08A818F708E3009F0FDCDEDEDF8
:10069000F0E010829C821A82F7CDF091A200FD83D7
:1006A0008F2F90E03091A100FC01E352FF4F698150
:1006B000462F50E0032E02C0440F551F0A94E2F764
:1006C0005081452B40833F5F3093A100363008F4C2
:1006D000DBCDEA81E0FDD7C0FC013196CF0166E0B9
:1006E00070E066D5892B09F440C002C09F5F01C04D
:1006F00091E08FEF890F813041F028F0823039F09E
:10070000833039F008C0C09AF1CFC19AEFCFC29AB6
:10071000EDCFC39A7EC1943048F37BC1C098C19A93
:10072000EFEFF0E732E0E150F0403040E1F700C099
:100730000000C09AC1984FEF60E792E041506040DE
:100740009040E1F700C00000C098C19AEFEFF0E7D9
:1007500032E0E150F0403040E1F700C00000C09AC4
:10076000C19A8150D9F6892D86C0363019F43EC021
:100770009F5F01C091E08FEF890F813041F028F039
:10078000823039F0833039F008C0C09AF1CFC19A75
:10079000EFCFC29AEDCFC39A3EC1943048F33BC12C
:1007A000C098C19A9FEFE0E7F2E09150E040F0403E
:1007B000E1F700C00000C09AC1983FEF40E762E057
:1007C000315040406040E1F700C00000C098C19A3D
:1007D0009FEFE0E7F2E09150E040F040E1F700C029
:1007E0000000C09AC19A8150D9F644C0EE34F10598
:1007F00024F480E040C09F5F01C091E08FEF890F3B
:10080000813041F028F0823039F0833039F008C06F
:10081000C09AF1CFC19AEFCFC29AEDCFC39AFDC073
:10082000943048F3FAC0C098C19A9FEFE0E7F2E035
:100830009150E040F040E1F700C00000C09AC1983C
:100840003FEF40E762E0315040406040E1F700C0D8
:100850000000C098C19A9FEFE0E7F2E09150E040BD
:10086000F040E1F700C00000C09AC19A8150D9F66B
:10087000892D01C0892D1092A2001092A1001C8226
:10088000882369F001CDED81EF5FED83E093A20055
:100890001092A100F0E0E352FF4F1082F5CC4D81A1
:1008A000498333DC60E080E0BADC6981062F10E028
:1008B0000F5F1F4F80E090E01982F981FF5FF9839D
:1008C000FC01E352FF4F60818981A9DC2981822FDD
:1008D00090E0801791078CF3C80166E070E068D45F
:1008E00080E09DDC91E003C08FE016C09F5F8FEF3A
:1008F000890F813041F028F0823039F0833039F0AF
:1009000008C0C09AF3CFC19AF1CFC29AEFCFC39A71
:10091000EBCF943058F3E8CFC2983FE748E361E06B
:10092000315040406040E1F700C00000C29A9FE7AC
:10093000E8E3F1E09150E040F040E1F700C0000052
:10094000815051F76EC08091D800882309F427CDDB
:10095000E9CC85E0FFCCC090C900D090CA00E090FF
:10096000CB00F090CC00A70196016091CD00709172
:10097000CE008091CF009091D00064D220E030E092
:1009800040E05FE3AAD3A70196015DD22B013C01B1
:100990009D8209CE872D962DA52DB42D8093C9005B
:1009A0009093CA00A093CB00B093CC008B2D9A2DCE
:1009B000A82DB9818093CD009093CE00A093CF0055
:1009C000B093D000272D362D452D542D6B2D7A2D2B
:1009D000882D9B2F37D26B017C0120E030E040E076
:1009E0005FE37BD3272D362D452D542D2CD22B01A3
:1009F0003C012DEC3CEC4CE45EE36B2D7A2D882D14
:100A000099816BD3A701960182D218160CF0CACD3A
:100A1000C3CD85E083CE85E0C3CE85E004CF20E062
:100A200033CC81E026960FB6F894DEBF0FBECDBF63
:100A3000DF91CF911F910F91FF90EF90DF90CF90BA
:100A4000BF90AF909F908F907F906F905F904F90EE
:100A50003F902F9008951F93CF93DF9380E0E7DBC3
:100A60008093DC009FEF980F9E3F20F5282F30E009
:100A7000280F311D280F311D220F331F12161306A8
:100A8000CCF5C0E0D0E010E01F5F812FD0DBC35277
:100A9000DF4F8883C12FD0E02091DC00822F90E0CF
:100AA000820F911D820F911D880F991FC817D907BA
:100AB0005CF320C080919D008093DC00482F50E0C3
:100AC000480F511D480F511D440F551F1416150690
:100AD0008CF480E090E020E0FC01E352FF4FDC0169
:100AE000AF59BF4F8C9180832F5F822F90E0841786
:100AF000950794F3DF91CF911F910895EFE3FCE9FF
:100B00003197F1F700C00000A091DC0051E0580FD0
:100B10005A17F0F4252F30E0250F311D250F311D18
:100B2000220F331FF901E352FF4F2D513F4F40E099
:100B300091919F7111F44F5F01C040E0E217F307FC
:100B4000B9F7463020F45F5F5A1720F301C0A52F94
:100B5000982F990F890F880F5A2F550F5A0F550F3D
:100B6000851708F05FC0E52FF0E0E452FF4FE08109
:100B700041E020E030E0F0E003C02F5F3F4F4F5FE7
:100B8000BF01022E02C0759567950A94E2F760FFD7
:100B900010C0213041F028F0223039F0233039F0F4
:100BA00018C0C098EACFC198E8CFC298E6CFC398E2
:100BB00012C0213041F028F0223039F0233039F0D2
:100BC00008C0C09ADACFC19AD8CFC29AD6CFC39AFA
:100BD00002C0443090F2EFE0FEE03197F1F700C040
:100BE000000021E001C02F5F9FEF920F913041F094
:100BF00028F0923039F0933039F008C0C09AF3CF22
:100C0000C19AF1CFC29AEFCFC39A02C0243058F3F1
:100C1000E7EEF3E03197F1F700C00000515085177F
:100C200008F4A1CF8A2F089580E020E0C0E011E011
:100C3000B59B0AC09091A0009F5F9093A000C093C5
:100C40009F00923368F410C090919F009F5F909333
:100C50009F00C093A000923338F010939E0004C010
:100C6000C0939E002C2F36C0D0919E002D1788F582
:100C70002FEB37E591E0215030409040E1F700C084
:100C800000003CDF9091DC00891708F08C2F21E0F8
:100C900001C02F5F9FEF920F913041F028F092300A
:100CA00039F0933039F008C0C09AF3CFC19AF1CF30
:100CB000C29AEFCFC39A02C0243058F32FEF33EF1C
:100CC00091E0215030409040E1F700C000002D2F0E
:100CD00001C02D2F3AE13A95F1F700C0A9CF80E885
:100CE00086BD16BCEDD91ADA08958FEB9DE5019704
:100CF000F1F700C00000F3DFAED98FEF98DAC82F0C
:100D0000813041F028F0823039F0833039F008C06A
:100D1000C0980EC0C1980CC0C2980AC0C39804C045
:100D200090E00196049724F060E08FEF78DA04C039
:100D300061E06C0F8FEF73DA9FEF29E638E1915095
:100D400020403040E1F700C0000060E08FEF67DA3C
:100D500081E003C0D0E016C08F5F9FEF980F913005
:100D600041F028F0923039F0933039F008C0C09A41
:100D7000F3CFC19AF1CFC29AEFCFC39AEBCF8430B1
:100D800058F3E8CFC13049F028F0C23079F1C330D0
:100D9000E9F1F8CF60DEC59A47DFC59A91E0B59BCF
:100DA0000AC08091A0008F5F8093A00010929F00E6
:100DB000823368F40FC080919F008F5F80939F0003
:100DC0001092A000823330F090939E0007C01092E2
:100DD0009E0006C080919E00882311F0C19801C03A
:100DE000C19A8AE18A95F1F700C0D9CF26DA882323
:100DF00049F2C2989FEF21EE34E0915020403040FC
:100E0000E1F700C00000C29ACD2FBCCF85E0C398A7
:100E10009FEF21EE34E0915020403040E1F700C0D8
:100E20000000C39A9FEF21EE34E091502040304003
:100E3000E1F700C00000815051F76FEF8D2FEFD91F
:100E4000CD2FA0CF5058BB27AA270ED008C1F9D06C
:100E500030F0FED020F031F49F3F11F41EF4EEC0CC
:100E60000EF4E095E7FBE4C0E92F0AD180F3BA174E
:100E7000620773078407950718F071F49EF522C185
:100E80000EF4E0950B2EBA2FA02D0B01B9019001A5
:100E90000C01CA01A0011124FF27591B99F0593FE9
:100EA00050F4503E68F11A16F040A22F232F342F31
:100EB0004427585FF3CF469537952795A795F0407F
:100EC0005395C9F77EF41F16BA0B620B730B840B94
:100ED000BAF09150A1F0FF0FBB1F661F771F881F4C
:100EE000C2F70EC0BA0F621F731F841F48F48795A4
:100EF00077956795B795F7959E3F08F0B3CF939593
:100F0000880F08F09927EE0F9795879508956CD074
:100F100008F481E00895BCD088F09F5790F0B92F75
:100F20009927B751A0F0D1F0660F771F881F991F3E
:100F30001AF0BA95C9F712C0B13081F0C3D0B1E050
:100F40000895C0C0672F782F8827B85F39F0B93F60
:100F5000CCF3869577956795B395D9F73EF4909540
:100F60008095709561957F4F8F4F9F4F0895E894BE
:100F700009C097FB3EF490958095709561957F4FE1
:100F80008F4F9F4F9923A9F0F92F96E9BB2793958F
:100F9000F695879577956795B795F111F8CFFAF49F
:100FA000BB0F11F460FF1BC06F5F7F4F8F4F9F4FD0
:100FB00016C0882311F096E911C0772321F09EE82E
:100FC000872F762F05C0662371F096E8862F70E094
:100FD00060E02AF09A95660F771F881FDAF7880F6E
:100FE0009695879597F90895990F0008550FAA0BC4
:100FF000E0E8FEEF16161706E807F907C0F012162C
:101000001306E407F50798F0621B730B840B950B2E
:1010100039F40A2661F0232B242B252B21F4089583
:101020000A2609F4A140A6958FEF811D811D089520
:1010300097F99F6780E870E060E008959FEF80EC8B
:10104000089500240A94161617061806090608952E
:1010500000240A9412161306140605060895092E94
:101060000394000C11F4882352F0BB0F40F4BF2B03
:1010700011F460FF04C06F5F7F4F8F4F9F4F089543
:1010800057FD9058440F551F59F05F3F71F0479539
:10109000880F97FB991F61F09F3F79F0879508951E
:1010A000121613061406551FF2CF4695F1DF08C03D
:1010B000161617061806991FF1CF8695710561055A
:1010C00008940895E894BB2766277727CB0197F902
:1010D00008958ADF08F48FEF08950AD0C0CFB1DFFA
:1010E00028F0B6DF18F0952309F0A2CFA7CFEBCFF9
:1010F000C7DFA8F39923D9F35523C9F3950F50E01F
:10110000551FAA27EE27FF27BB27002408946795C1
:1011100020F4E20FF31FB41F0A1E220F331F441FD7
:10112000AA1F6695A9F7779530F4F30FB41F0A1E2E
:10113000121E08F46395330F441FAA1F221F7695D1
:1011400099F7879520F4B40F0A1E121E631F440FEF
:10115000AA1F221F331F8695A9F7862F712D602D98
:1011600011249F5750408AF0E1F088234AF0EE0F97
:10117000FF1FBB1F661F771F881F91505040A9F7A4
:101180009E3F510570F054CF9ECF5F3FECF3983EE9
:10119000DCF3869577956795B795F795E7959F5F0B
:1011A000C1F7FE2B880F911D9695879597F90895A5
:1011B00097FB072E16F4009406D077FD08D00BD0CD
:1011C00007FC05D03EF4909581959F4F089570954A
:1011D00061957F4F0895AA1BBB1B51E107C0AA1F51
:1011E000BB1FA617B70710F0A61BB70B881F991FC8
:1011F0005A95A9F780959095BC01CD010895F89472
:02120000FFCF1E
:101202000A1017151D0100001E05051E000F1810FB
:10121200180F000E1111111100001F1515110000F9
:1012220000000000000000000000000000000000BC
:0E1232000000000000000000000000000005A9
:00000001FF
