S012000053657269616C546573742E7372656312
S11300000EC028C027C026C025C024C023C022C0DB
S113001021C020C01FC01EC01DC01CC01BC0112495
S11300201FBECFE5D2E0DEBFCDBF10E0A0E6B0E05A
S1130030E8EAF2E002C005900D92A836B107D9F7BC
S113004020E0A8E6B0E001C01D92A936B207E1F7AE
S1130050C4D028C1D5CFC49ABC9A0895C4980000CE
S113006000000000EFE0F0E03197F1F798E080FF46
S113007003C00000C49A03C0C49800000000869521
S1130080000000000000EEE0F0E03197F1F791503D
S113009071F70000000000000000C49AEFE0F0E0F7
S11300A03197F1F70895CF93CFB7F894D7DFCFBF47
S11300B0CF910895CF93DF93EC018091600081117B
S11300C004C0888181110AC00EC08881882359F038
S11300D02196E9DF89918111FCCF05C02196BEDF0D
S11300E089918111FCCFDF91CF910895CF93DF9354
S11300F0FC018081803239F4CF010196FC01019624
S113010020812032D9F380916000811104C0808164
S113011081110BC010C08081882369F0EF01219602
S1130120C2DF89918111FCCF06C0EF01219696DFD1
S113013089918111FCCFDF91CF910895CF93DF9303
S1130140CDB7DEB727970FB6F894DEBF0FBECDBF8D
S1130150CB0150E0BE016F5F7F4F67D0CE010196A7
S1130160C5DF27960FB6F894DEBF0FBECDBFDF9173
S1130170CF91089590916000992311F094DF089530
S11301806DDF08958DE0F6DF8AE0F4DF0895CF9304
S1130190DF93EC01CB018EDFCE01F4DFDF91CF9151
S11301A00895B89AB99ABA9ABB9A91E001C09F5F30
S11301B08FEF890F813041F028F0823039F083309D
S11301C039F008C0C09AF3CFC19AF1CFC29AEFCFE9
S11301D0C39A0895943058F3089580E886BD16BCF8
S11301E03ADFDFDFC09861E670E088E690E0CFDFB9
S11301F02FEF84E39CE0215080409040E1F700C061
S11302000000C09A4AE064E670E088E690E096DF79
S113021088E690E0B7DF2FEF84E39CE02150804034
S11302209040E1F700C00000DDCF4532510518F4DD
S1130230423008F004C0FB011082CB010895BB27B3
S11302404A3031F4992322F4BDE2909581959F4F71
S113025001C0BB27FB015527AA27880F991FAA1F96
S1130260A41710F0A41B83955051B9F7A05DAA33CD
S113027008F0A95DA193009779F7B111B193119298
S1130280CB0100C0DC01FC01672F71917723E1F7FA
S1130290329704C07C916D9370836291AE17BF074F
S10B02A0C8F30895F894FFCFA0
S10B02A80168656C6C6F000035
S9030000FC
