S00F00006F735F323032352E737265630B
S11300000EC028C027C026C025C025C023C022C0DA
S113001021C020C01FC01EC01DC01CC01BC0112495
S11300201FBECFE5D2E0DEBFCDBF10E0A0E6B0E05A
S1130030E0EDFBE002C005900D92AE39B107D9F7AF
S113004022E0AEE9B0E001C01D92A432B207E1F7AC
S113005076D4BCC5D5CF1F920F920FB60F92112440
S11300608F93809122028F5F809322021092230249
S11300708F910F900FBE0F901F901895E199FECFAE
S11300801CBA8EBB6DBB8CB384608CBB8CB382609A
S11300908CBB0895E199FECF8EBB8CB381608CBB81
S11300A08DB3089580E021C0823099F028F488232C
S11300B041F0813051F018C0833079F0843089F0F8
S11300C013C098B3916098BB0FC098B3926098BB6B
S11300D00BC098B3946098BB07C098B3986098BB62
S11300E003C098B3906198BB8F5F8530E8F20895A0
S11300F087B3816087BB87B3826087BB87B3846023
S113010087BB87B3886087BB87B3806187BB80E088
S113011021C0823099F028F4882341F0813051F0D5
S113012018C0833079F0843089F013C098B391609B
S113013098BB0FC098B3926098BB0BC098B39460FF
S113014098BB07C098B3986098BB03C098B39061FC
S113015098BB8F5F8530E8F2089580E021C082303B
S113016099F028F4882341F0813051F018C083308D
S113017079F0843089F013C098B39E7F98BB0FC088
S113018098B39D7F98BB0BC098B39B7F98BB07C067
S113019098B3977F98BB03C098B39F7E98BB8F5F3B
S11301A08530E8F28FE19EE40197F1F700C000008A
S11301B080E021C0823099F028F4882341F0813016
S11301C051F018C0833079F0843089F013C098B3AB
S11301D0916098BB0FC098B3926098BB0BC098B362
S11301E0946098BB07C098B3986098BB03C098B359
S11301F0906198BB8F5F8530E8F2089585E083BFF6
S113020012BE82E089BF7894089580B58E7F80BD48
S113021017B887B18F7D87B984E886B9089586B108
S1130220806486B93699FECF84B195B108952F9232
S11302303F924F925F926F927F928F929F92AF9272
S1130240BF92CF92DF92EF92FF920F931F93CF93BF
S1130250DF9300D000D01F92CDB7DEB71A82198287
S11302608FB7F894109223029091230292BF1092B8
S113027022028FBF1D821C82612C512C1B82712C87
S1130280412C0F2E88248A94FFE79F2EF02DAA2458
S1130290AA94BA2CC12CD12C332433940F2EF8E811
S11302A0EF2EF3E1FF2EF02D81C188B3806288BB6D
S11302B08FE396E00197F1F700C0000088B38F7DCB
S11302C088BB212C00E010E004C0A9DF080F191F2F
S11302D023949FE39215C8F7332051F10A151B05A7
S11302E058F4C501801B910B969587959695879533
S11302F096958795A81AB90AC016D10658F4C8016C
S11303008C199D09969587959695879596958795C9
S1130310C80ED91E42E3A40EB11C82E3C81AD10848
S1130320460196948794C50196958795880E991EE3
S113033021E08016910608F420E0872D90E0880FD4
S1130340991F722E782A872D8F7111F4E42D01C024
S1130350E1E0872D90E0809590958F719927892B06
S113036009F0E0E02E2F30E0842D90E0DC01A09530
S1130370B095A223B323A901409550958C01042381
S113038015239FB7F89482B78093230240912302E8
S1130390809122029FBF90E0982F8827842BEE2320
S11303A021F048B34E7F48BB03C048B3416048BB0B
S11303B04B814A3018F441E0E41AF1084B814A3089
S11303C008F052C0109709F44FC02FB7F894109258
S11303D023023091230232BF109222022FBF9C01CC
S11303E022583109233B3B4008F0DCC029813A8183
S11303F02817390730F429813A81BC01621B730B39
S113040004C069817A81681B790B29813A81369508
S1130410279536952795A901440F551F240F351F9D
S1130420AC015695479556954795240F351F3A8349
S11304302983929582958F7089279F7089278617C3
S1130440970708F4B1C08B818F5F8B838A3008F4DF
S1130450ACC088B38D7F88BB89819A819695879536
S11304609A838983312CA1C04B814A3008F49DC002
S113047049815A8142955295507F5427407F542791
S11304804817590708F496C04C814130F9F018F028
S1130490423061F144C00115110559F04FB7F89489
S11304A0109223025091230252BF109222024FBF96
S11304B036C0EE23A1F149815A81BA01660F771F34
S11304C0460F571F4817590740F129C00115110558
S11304D031F14FB7F894109223025091230252BF86
S11304E0109222024FBF42E04C8319C049815A81C5
S11304F0569547954817590790F44FB7F8941092BA
S113050023025091230252BF109222024FBF48B3DC
S11305104B7F48BB43E04C8302C041E04C834C8199
S1130520433009F042C0AB2B11F4012B81F08981D7
S11305309A81969587952FB7F8948093230280919A
S1130540230282BF909322022FBF1D822EC04981B5
S11305505A814817590710F58D818F5F8D838FB7A6
S1130560F894109223029091230292BF10922202D7
S11305708FBFA62DB0E0052C02C0220F331F0A94B2
S1130580E2F7AE55BF4F8C91282B2C93539495E0F2
S1130590951520F4EE2371F06394512C4D8149306C
S11305A020F008C01B8201C01B824E2EE114F1040E
S11305B009F07BCE8C81833051F5062D10E00F5F5E
S11305C01F4FC80166E070E0DAD2892B11F596E07E
S11305D0591221C0063841E01407FCF460E080E0C1
S11305E04DDDF12C07C0F394FC01EE55FF4F608103
S11305F08F2D44DD8F2D90E080179107A4F3C8015F
S113060066E070E0BCD280E039DD81E007C080E0C4
S113061005C080E003C080E001C080E00F900F902F
S11306200F900F900F90DF91CF911F910F91FF903A
S1130630EF90DF90CF90BF90AF909F908F907F907E
S11306406F905F904F903F902F9008951F93CF939A
S1130650DF9380E01FDD8093A10081508E3F40F046
S113066018C01F5F812F16DDCE55DF4F888301C070
S113067010E0C12FD0E08091A10090E09C01220FF6
S1130680331F820F931F880F991FC817D9074CF384
S11306901DC050919C005093A10040E009C0F90195
S11306A0E05AFF4F8081F901EE55FF4F80834F5F81
S11306B0242F30E0852F90E0BC01660F771F860F52
S11306C0971F880F991F281739074CF3DF91CF9193
S11306D01F910895EFE3FCE93197F1F700C00000A2
S11306E06091A10051E0580F1CC0252F30E0F901A2
S11306F0EE0FFF1FE20FF31FEE0FFF1FE90FF11DB7
S1130700EE55FF4F20812F7111F44F5F01C040E07F
S11307109F5F02C090E040E0963038F3463020F40A
S11307205F5F5617B8F301C0652F982F990F890F93
S1130730782F770F862F880F860F582F550F88C074
S1130740E52FF0E0EF55FF4F408190E04CC0242F9F
S113075030E0092E02C0359527950A94E2F720FF70
S113076021C0923099F028F4992341F0913051F04E
S113077039C0933079F0943089F034C088B38E7FD7
S113078088BB30C088B38D7F88BB2CC088B38B7F77
S113079088BB28C088B3877F88BB24C088B38F7E7A
S11307A088BB20C0923099F028F4992341F091300D
S11307B051F018C0933079F0943089F013C088B3A5
S11307C0816088BB0FC088B3826088BB0BC088B3CC
S11307D0846088BB07C088B3886088BB03C088B3C3
S11307E0806188BB9F5F953008F4B1CF8FE09EE0B5
S11307F00197F1F700C0000090E021C0923099F019
S113080028F4992341F0913051F018C0933079F0D5
S1130810943089F013C088B3816088BB0FC088B35B
S1130820826088BB0BC088B3846088BB07C088B370
S1130830886088BB03C088B3806188BB9F5F9530A4
S1130840E8F2E7EEF3E03197F1F700C00000515011
S1130850751708F475CF862F089580E090E0B59B56
S113086008C02091A0002F5F2093A00010929F0049
S113087007C020919F002F5F20939F001092A0003B
S113088020919F00223318F021E020939E002091B4
S1130890A000223310F010929E0020919E00C1E02F
S11308A0211101C0C0E09C17E8F52FEB37E591E07A
S11308B0215030409040E1F700C000000BDF9091E0
S11308C0A100891708F080E090E021C0923099F0EF
S11308D028F4992341F0913051F018C0933079F005
S11308E0943089F013C028B3216028BB0FC028B30B
S11308F0226028BB0BC028B3246028BB07C028B3E0
S1130900286028BB03C028B3206128BB9F5F9530B3
S1130910E8F22FEF33EF91E0215030409040E1F7BF
S113092000C000002AE12A95F1F700C09C2F97CF60
S113093080E886BD16BCDCDB68DC60DC08958FEBE8
S11309409DE50197F1F700C00000F2DF06DC8FEFB0
S1130950A1DBC82F823099F028F4882341F081303C
S113096051F018C0833079F0843089F013C088B313
S11309708E7F88BB0FC088B38D7F88BB0BC088B3C4
S11309808B7F88BB07C088B3877F88BB03C088B3CD
S11309908F7E88BB8C2F90E00196049724F060E052
S11309A08FEF6CDB04C061E06C0F8FEF67DB9FEFB0
S11309B029E638E1915020403040E1F700C00000C2
S11309C060E08FEF5BDB6EDBC13061F030F0C23092
S11309D0D1F1C33009F4CBC0F7CF38DE88B38062DD
S11309E088BB3BDF88B3806288BBB59B08C080911D
S11309F0A0008F5F8093A00010929F0007C0809199
S1130A009F008F5F80939F001092A00080919F00B1
S1130A10823318F081E080939E008091A00082339D
S1130A2010F010929E0080919E00882321F088B3DC
S1130A308E7F88BB03C088B3816088BB8AE18A95B6
S1130A40F1F700C0D2CFF3DB811123C030C0823074
S1130A5099F028F4882341F0813051F018C0833094
S1130A6079F0843089F013C098B39E7F98BB0FC08F
S1130A7098B39D7F98BB0BC098B39B7F98BB07C06E
S1130A8098B3977F98BB03C098B39F7E98BB8F5F42
S1130A9001C080E08530D8F29FEF24E33CE0915020
S1130AA020403040E1F700C00000FCDAC0E055DB34
S1130AB08BCF823099F028F4882341F0813051F0B3
S1130AC018C0833079F0843089F013C028B32E7FA6
S1130AD028BB0FC028B32D7F28BB0BC028B32B7FA6
S1130AE028BB07C028B3277F28BB03C028B32F7EA9
S1130AF028BB8F5F01C080E08530D8F28FEF21EEF4
S1130B0034E0815020403040E1F700C0000080E034
S1130B1021C0823099F028F4882341F0813051F0CB
S1130B2018C0833079F0843089F013C028B3216071
S1130B3028BB0FC028B3226028BB0BC028B3246095
S1130B4028BB07C028B3286028BB03C028B3206192
S1130B5028BB8F5F8530E8F28FEF21EE34E08150BF
S1130B6020403040E1F700C000009F5F01C090E0EA
S1130B709A3008F26FEF80E081DAC0E025CF97FB6E
S1130B80072E16F4009406D077FD08D00BD007FC8E
S1130B9005D03EF4909581959F4F08957095619589
S1130BA07F4F0895AA1BBB1B51E107C0AA1FBB1F9F
S1130BB0A617B70710F0A61BB70B881F991F5A95E5
S1130BC0A9F780959095BC01CD010895F894FFCFC5
S1130BD00E1111110E00001F09090600001F151542
S1130BE011001F0204081F0000000000000010177D
S1130BF0151D0100001E05051E000F1810180F001A
S1110C000E1111111100001F151511000A002C
S9030000FC
