S00F00006F735F323032352E737265630B
S11300000EC028C027C026C025C024C023C022C0DB
S11300105FC020C033C01EC01DC01CC01BC0112443
S11300201FBECFE5D2E0DEBFCDBF10E0A0E6B0E05A
S1130030E2E8FDE002C005900D92AE39B107D9F7B0
S113004021E0AEE9B0E001C01D92A530B207E1F7AE
S11300502AD495C6D5CF82E08ABD93E699BD83BFE5
S113006089B7806189BF089580B58E7F80BD17B838
S113007087B18F7D87B98FE886B908951F920F9253
S11300800FB60F9211248F9380910401823041F0B6
S11300908C3351F081110BC088B3806288BB07C0D8
S11300A088B38F7D88BB03C086B1806486B9809194
S11300B004018F5F80930401809104018D3710F057
S11300C0109204018F910F900FBE0F901F901895FE
S11300D01F920F920FB60F9211242F933F938F9379
S11300E09F93AF93BF9324B135B18091B4009091A5
S11300F0B500A091B600B091B700820F931FA11D67
S1130100B11D8093B4009093B500A093B600B09352
S1130110B7002091B300203438F42F5F2093B3004C
S113012086B1806486B919C021E02093BA0068942E
S113013015F8B695A795979587951694D1F790934A
S1130140B9008093B8001092B4001092B5001092D8
S1130150B6001092B7001092B300BF91AF919F9177
S11301608F913F912F910F900FBE0F901F90189574
S1130170E199FECF1CBA8EBB6DBB8CB384608CBB83
S11301808CB382608CBB0895E199FECF8EBB8CB397
S113019081608CBB8DB3089580E021C0823099F0DA
S11301A028F4882341F0813051F018C0833079F06D
S11301B0843089F013C098B3916098BB0FC098B392
S11301C0926098BB0BC098B3946098BB07C098B377
S11301D0986098BB03C098B3906198BB8F5F8530DB
S11301E0E8F2089580E021C0823099F028F4882351
S11301F041F0813051F018C0833079F0843089F0B7
S113020013C098B39E7F98BB0FC098B39D7F98BBD3
S11302100BC098B39B7F98BB07C098B3977F98BBDC
S113022003C098B39F7E98BB8F5F8530E8F28FE15F
S11302309EE40197F1F700C0000080E021C0823005
S113024099F028F4882341F0813051F018C08330AC
S113025079F0843089F013C098B3916098BB0FC0D3
S113026098B3926098BB0BC098B3946098BB07C0D6
S113027098B3986098BB03C098B3906198BB8F5FA4
S11302808530E8F2089587B3816087BB87B38260C5
S113029087BB87B3846087BB87B3886087BB87B31A
S11302A0806187BB80E021C0823099F028F48823E4
S11302B041F0813051F018C0833079F0843089F0F6
S11302C013C098B3916098BB0FC098B3926098BB69
S11302D00BC098B3946098BB07C098B3986098BB60
S11302E003C098B3906198BB8F5F8530E8F208959E
S11302F04F925F926F927F928F929F92AF92BF9232
S1130300CF92DF92EF92FF920F931F93CF93DF93DD
S1130310ABDEA1DE7894D0E0C0E010E000E020E0A5
S113032033C120E030E040E05FE36091AF007091C2
S1130330B0008091B1009091B2008FD46B017C0128
S11303406091B8007091B90080E090E0D0D320E0D3
S113035030E040E05FE381D49B01AC01C701B6010A
S11303605ED36B017C016093AF007093B000809307
S1130370B1009093B2008090AB009090AC00A0903C
S1130380AD00B090AE00A501940163D418164CF4EE
S1130390C092AB00D092AC00E092AD00F092AE00FF
S11303A03EC04090A7005090A8006090A9007090B3
S11303B0AA00A3019201C701B60195D388234CF486
S11303C0C092A700D092A800E092A900F092AA00DF
S11303D026C02AE037ED43EA5BE3C501B4013DD40E
S11303E09B01AC01C501B40119D36093AB007093B8
S11303F0AC008093AD009093AE002AE037ED43EA61
S11304005BE32BD49B01AC01C301B20108D360931D
S1130410A7007093A8008093A9009093AA0060910C
S1130420AB007091AC008091AD009091AE008090D3
S1130430A7009090A800A090A900B090AA00A501E0
S11304409401ECD22B013C0120E030E040E05FE37A
S113045004D49B01AC01C501B401E1D24B015C01A0
S113046020E030E048E452E4C301B201F2D388232F
S113047014F011E001C010E0A5019401C701B60118
S113048032D3882314F421E001C020E0112349F180
S1130490201779F0D0E0CC0FDD1FC22B8CE08093C5
S11304A0A60081E08093A5008093A400022FD1E0F0
S11304B013C09091A4008091A60098130DC0D0E0C1
S11304C0CC0FDD1FC22B885F8093A6008091A5000E
S11304D08F5F8093A500D1E08091A4008F5F80930B
S11304E0A400DD2309F450C08091A30081110CC045
S11304F09C2F9F709E3041F481E08093A300109262
S1130500BC00D0E0C0E040C08823D9F1E091A20053
S11305108E2F90E03091A100422F50E0032E02C0B4
S1130520440F551F0A94E2F7DC01A454BF4F5C91B9
S1130530452B4C933F5F3093A100363020F1C0FD32
S113054015C01092A300FC013196CF0166E070E063
S1130550EFD3892BF1F43630E1F4EE34F105CCF429
S11305601092A2001092A100D0E00EC0EF5FE093C1
S1130570A2001092A100F0E0E454FF4F1082D0E0FA
S113058003C0D0E001C0D0E08091BA008111C9CE8F
S11305907DCF80E0DF91CF911F910F91FF90EF907D
S11305A0DF90CF90BF90AF909F908F907F906F908F
S11305B05F904F9008951F93CF93DF9380E0E4DD25
S11305C08093BB0081508E3F40F018C01F5F812F85
S11305D0DBDDC454DF4F888301C010E0C12FD0E0BD
S11305E08091BB0090E09C01220F331F820F931F68
S11305F0880F991FC817D9074CF31DC050919C0050
S11306005093BB0040E009C0F901E05AFF4F8081DC
S1130610F901E454FF4F80834F5F242F30E0852F8E
S113062090E0BC01660F771F860F971F880F991FF4
S1130630281739074CF3DF91CF911F910895EFE309
S1130640FCE93197F1F700C000006091BB0051E074
S1130650580F1CC0252F30E0F901EE0FFF1FE20FE9
S1130660F31FEE0FFF1FE90FF11DE454FF4F20812C
S11306702F7111F44F5F01C040E09F5F02C090E012
S113068040E0963038F3463020F45F5F5617B8F3F5
S113069001C0652F982F990F890F782F770F862F18
S11306A0880F860F582F550F88C0E52FF0E0E554CA
S11306B0FF4F408190E04CC0242F30E0092E02C04F
S11306C0359527950A94E2F720FF21C0923099F0DE
S11306D028F4992341F0913051F039C0933079F0E6
S11306E0943089F034C088B38E7F88BB30C088B31F
S11306F08D7F88BB2CC088B38B7F88BB28C088B310
S1130700877F88BB24C088B38F7E88BB20C092308B
S113071099F028F4992341F0913051F018C09330A6
S113072079F0943089F013C088B3816088BB0FC01E
S113073088B3826088BB0BC088B3846088BB07C061
S113074088B3886088BB03C088B3806188BB9F5F1F
S1130750953008F4B1CF8FE09EE00197F1F700C027
S1130760000090E021C0923099F028F4992341F0E0
S1130770913051F018C0933079F0943089F013C05F
S113078088B3816088BB0FC088B3826088BB0BC00C
S113079088B3846088BB07C088B3886088BB03C003
S11307A088B3806188BB9F5F9530E8F2E7EEF3E0A1
S11307B03197F1F700C000005150751708F475CF58
S11307C0862F089580E090E0B59B08C02091A0009A
S11307D02F5F2093A00010929F0007C020919F00DC
S11307E02F5F20939F001092A00020919F0022333E
S11307F018F021E020939E002091A000223310F0F5
S113080010929E0020919E00C1E0211101C0C0E021
S11308109C17E8F52FEB37E591E0215030409040EC
S1130820E1F700C000000BDF9091BB00891708F0CE
S113083080E090E021C0923099F028F4992341F0AF
S1130840913051F018C0933079F0943089F013C08E
S113085028B3216028BB0FC028B3226028BB0BC07B
S113086028B3246028BB07C028B3286028BB03C072
S113087028B3206128BB9F5F9530E8F22FEF33EF58
S113088091E0215030409040E1F700C000002AE19F
S11308902A95F1F700C09C2F97CF80E886BD16BC3F
S11308A0F2DCE2DB08958FEB9DE50197F1F700C0E0
S11308B00000F3DF97DC8FEF67DCC82F823099F0FC
S11308C028F4882341F0813051F018C0833079F046
S11308D0843089F013C088B38E7F88BB0FC088B37F
S11308E08D7F88BB0BC088B38B7F88BB07C088B360
S11308F0877F88BB03C088B38F7E88BB8C2F90E032
S11309000196049724F060E08FEF32DC04C061E0CC
S11309106C0F8FEF2DDC9FEF29E638E191502040DA
S11309203040E1F700C0000060E08FEF21DC34DCF0
S1130930C13061F030F0C230D1F1C33009F466C087
S1130940F7CF39DE88B3806288BB3CDF88B380622E
S113095088BBB59B08C08091A0008F5F8093A000E6
S113096010929F0007C080919F008F5F80939F002B
S11309701092A00080919F00823318F081E0809350
S11309809E008091A000823310F010929E0080910E
S11309909E00882321F088B38E7F88BB03C088B370
S11309A0816088BB8AE18A95F1F700C0D2CFA0DCD0
S11309B0882381F088B38B7F88BB9FEF21EE34E0DE
S11309C0915020403040E1F700C0000088B38460BB
S11309D088BBC0E007DCACCF98B3977F98BB9FEF90
S11309E021EE34E0915020403040E1F700C0000097
S11309F098B3986098BB9FEF21EE34E0915020406B
S1130A003040E1F700C000008F5F01C080E0853016
S1130A1018F36FEF80E0ACDBC0E08ACF5058BB27FF
S1130A20AA270ED0DCC0CDD030F0D2D020F031F4E3
S1130A309F3F11F41EF4C2C00EF4E095E7FBB8C06A
S1130A40E92FDED080F3BA1762077307840795078E
S1130A5018F071F49EF5F6C00EF4E0950B2EBA2F43
S1130A60A02D0B01B90190010C01CA01A0011124B0
S1130A70FF27591B99F0593F50F4503E68F11A165C
S1130A80F040A22F232F342F4427585FF3CF4695ED
S1130A9037952795A795F0405395C9F77EF41F160F
S1130AA0BA0B620B730B840BBAF09150A1F0FF0FD9
S1130AB0BB1F661F771F881FC2F70EC0BA0F621FC5
S1130AC0731F841F48F4879577956795B795F795B5
S1130AD09E3F08F0B3CF9395880F08F09927EE0F47
S1130AE097958795089540D008F481E00895E89497
S1130AF009C097FB3EF490958095709561957F4F62
S1130B008F4F9F4F9923A9F0F92F96E9BB2793950F
S1130B10F695879577956795B795F111F8CFFAF41F
S1130B20BB0F11F460FF1BC06F5F7F4F8F4F9F4F50
S1130B3016C0882311F096E911C0772321F09EE8AE
S1130B40872F762F05C0662371F096E8862F70E014
S1130B5060E02AF09A95660F771F881FDAF7880FEE
S1130B609695879597F90895990F0008550FAA0B44
S1130B70E0E8FEEF16161706E807F907C0F01216AC
S1130B801306E407F50798F0621B730B840B950BAF
S1130B9039F40A2661F0232B242B252B21F4089504
S1130BA00A2609F4A140A6958FEF811D811D0895A1
S1130BB097F99F6780E870E060E008959FEF80EC0C
S1130BC0089500240A9416161706180609060895AF
S1130BD000240A9412161306140605060895092E15
S1130BE00394000C11F4882352F0BB0F40F4BF2B84
S1130BF011F460FF04C06F5F7F4F8F4F9F4F0895C4
S1130C0057FD9058440F551F59F05F3F71F04795B9
S1130C10880F97FB991F61F09F3F79F0879508959E
S1130C20121613061406551FF2CF4695F1DF08C0BD
S1130C30161617061806991FF1CF869571056105DA
S1130C4008940895E894BB2766277727CB0197F982
S1130C5008958ADF08F48FEF08950AD0C0CFB1DF7A
S1130C6028F0B6DF18F0952309F0A2CFA7CFEBCF79
S1130C70C7DFA8F39923D9F35523C9F3950F50E09F
S1130C80551FAA27EE27FF27BB2700240894679542
S1130C9020F4E20FF31FB41F0A1E220F331F441F58
S1130CA0AA1F6695A9F7779530F4F30FB41F0A1EAF
S1130CB0121E08F46395330F441FAA1F221F769552
S1130CC099F7879520F4B40F0A1E121E631F440F70
S1130CD0AA1F221F331F8695A9F7862F712D602D19
S1130CE011249F5750408AF0E1F088234AF0EE0F18
S1130CF0FF1FBB1F661F771F881F91505040A9F725
S1130D009E3F510570F054CF9ECF5F3FECF3983E69
S1130D10DCF3869577956795B795F795E7959F5F8B
S1130D20C1F7FE2B880F911D9695879597F9089525
S1130D3097FB072E16F4009406D077FD08D00BD04D
S1130D4007FC05D03EF4909581959F4F08957095CA
S1130D5061957F4F0895AA1BBB1B51E107C0AA1FD1
S1130D60BB1FA617B70710F0A61BB70B881F991F48
S1130D705A95A9F780959095BC01CD010895F894F2
S1050D80FFCF9F
S1130D820E1111110E00001F09090600001F15158E
S1130D9211001F0204081F000000000000001017C9
S1130DA2151D0100001E05051E000F1810180F0066
S1110DB20E1111111100001F151511000A0079
S9030000FC
