S00F00006F735F323032352E737265630B
S11300000EC028C027C026C025C025C023C022C0DA
S113001021C020C01FC01EC01DC01CC01BC0112495
S11300201FBECFE5D2E0DEBFCDBF10E0A0E6B0E05A
S1130030EEE3FBE002C005900D92AE39B107D9F7AB
S113004020E0AEE9B0E001C01D92AC3EB207E1F79A
S113005092D473C5D5CF1F920F920FB60F9211246D
S11300608F938091EA008F5F8093EA001092EB00F7
S11300708F910F900FBE0F901F901895E199FECFAE
S11300801CBA8EBB6DBB8CB384608CBB8CB382609A
S11300908CBB0895E199FECF8EBB8CB381608CBB81
S11300A08DB3089580E021C0823099F028F488232C
S11300B041F0813051F018C0833079F0843089F0F8
S11300C013C098B3916098BB0FC098B3926098BB6B
S11300D00BC098B3946098BB07C098B3986098BB62
S11300E003C098B3906198BB8F5F8530E8F20895A0
S11300F087B3816087BB87B3826087BB87B3846023
S113010087BB87B3886087BB87B3806187BB80E088
S113011021C0823099F028F4882341F0813051F0D5
S113012018C0833079F0843089F013C098B391609B
S113013098BB0FC098B3926098BB0BC098B39460FF
S113014098BB07C098B3986098BB03C098B39061FC
S113015098BB8F5F8530E8F2089580E021C082303B
S113016099F028F4882341F0813051F018C083308D
S113017079F0843089F013C098B39E7F98BB0FC088
S113018098B39D7F98BB0BC098B39B7F98BB07C067
S113019098B3977F98BB03C098B39F7E98BB8F5F3B
S11301A08530E8F28FE19EE40197F1F700C000008A
S11301B080E021C0823099F028F4882341F0813016
S11301C051F018C0833079F0843089F013C098B3AB
S11301D0916098BB0FC098B3926098BB0BC098B362
S11301E0946098BB07C098B3986098BB03C098B359
S11301F0906198BB8F5F8530E8F2089585E083BFF6
S113020012BE82E089BF7894089580B58E7F80BD48
S113021017B887B18F7D87B984E886B9089586B108
S1130220806486B93699FECF84B195B108952F9232
S11302303F924F925F926F927F928F929F92AF9272
S1130240BF92CF92DF92EF92FF920F931F93CF93BF
S1130250DF9300D000D01F92CDB7DEB71A82198287
S11302608FB7F8941092EB009091EB0092BF10922C
S1130270EA008FBF1D821C82612C412C1B82712CD1
S1130280312C0F2E88248A94FFE79F2EF02DAA2468
S1130290AA94BA2CC12CD12C552453940F2EF8E8CF
S11302A0EF2EF3E1FF2EF02D80C188B3806288BB6E
S11302B08FE396E00197F1F700C0000088B38F7DCB
S11302C088BB212C00E010E004C0A9DF080F191F2F
S11302D023949FE39215C8F7552051F10A151B0585
S11302E058F4C501801B910B969587959695879533
S11302F096958795A81AB90AC016D10658F4C8016C
S11303008C199D09969587959695879596958795C9
S1130310C80ED91E22E3A20EB11C32E3C31AD108BF
S1130320460196948794C50196958795880E991EE3
S113033021E08016910608F420E0872D90E0880FD4
S1130340991F722E782A872D8F7111F4A32D01C065
S1130350A1E0872D90E0809590958F719927892B46
S113036009F0A0E02A2F30E0832D90E0FC01E09515
S1130370F095E223F323A901409550958C010423C1
S113038015239FB7F89482B78093EB004091EB005C
S11303908091EA009FBF90E0982F8827842B5520F6
S11303A049F0AA2321F048B34E7F48BB03C048B3A9
S11303B0416048BB4B814A3018F441E0E41AF1082B
S11303C04B814A3008F052C0309709F44FC02FB720
S11303D0F8941092EB003091EB0032BF1092EA00D7
S11303E02FBF9C0122583109233B3B4008F0D9C060
S11303F029813A812817390730F429813A81BC01CF
S1130400621B730B04C069817A81681B790B298193
S11304103A813695279536952795A901440F551F9E
S1130420240F351FAC015695479556954795240FD3
S1130430351F3A832983929582958F7089279F70FF
S113044089278617970708F4AEC08B818F5F8B834B
S11304508A3008F4A9C088B3816088BB89819A81F5
S1130460969587959A838983512C9EC04B814A30F7
S113047008F49AC049815A8142955295507F542775
S1130480407F54274817590708F493C04C814130E2
S1130490F9F018F0423061F141C00115110559F02D
S11304A04FB7F8941092EB005091EB0052BF1092AA
S11304B0EA004FBF33C0AA2389F149815A81BA01A6
S11304C0660F771F460F571F4817590728F126C094
S11304D00115110519F14FB7F8941092EB005091E2
S11304E0EB0052BF1092EA004FBF42E04C8316C0AB
S11304F049815A81569547954817590778F44FB75B
S1130500F8941092EB005091EB0052BF1092EA0065
S11305104FBF43E04C8302C041E04C834C814330E5
S113052009F042C0EF2B11F4012B81F089819A81EB
S1130530969587952FB7F8948093EB008091EB0004
S113054082BF9093EA002FBF1D822EC049815A8139
S11305504817590710F58D818F5F8D838FB7F894F5
S11305601092EB009091EB0092BF1092EA008FBFC3
S1130570E62DF0E0042C02C0220F331F0A94E2F7A8
S1130580EE55FF4F8081282B2083439495E09415EA
S113059020F4AA2371F06394412C2D81293020F09A
S11305A008C01B8201C01B823A2EE114F10409F039
S11305B07CCE3C81333009F046C0062D10E00F5F3D
S11305C01F4FC80166E070E091D2892BF1F546E037
S11305D044123DC00E341105E4F560E080E04EDDC8
S11305E0F12C07C0F394FC01EE55FF4F60818F2D71
S11305F045DD8F2D90E080179107A4F3C80166E0D4
S113060070E074D280E03ADD80E019C098B39B7F3B
S113061098BB9FEF21EE34E0915020403040E1F749
S113062000C0000098B3946098BB4FEF91EE24E0B3
S1130630415090402040E1F700C000008F5F8330BC
S113064028F381E007C080E005C080E003C080E0BB
S113065001C080E00F900F900F900F900F90DF91EA
S1130660CF911F910F91FF90EF90DF90CF90BF90AB
S1130670AF909F908F907F906F905F904F903F903E
S11306802F9008951F93CF93DF9380E003DD809331
S1130690A10081508E3F40F018C01F5F812FFADC0B
S11306A0CE55DF4F888301C010E0C12FD0E0809188
S11306B0A10090E09C01220F331F820F931F880F2B
S11306C0991FC817D9074CF31DC050919C00509333
S11306D0A10040E009C0F901E05AFF4F8081F9010F
S11306E0EE55FF4F80834F5F242F30E0852F90E03D
S11306F0BC01660F771F860F971F880F991F281755
S113070039074CF3DF91CF911F910895EFE3FCE992
S11307103197F1F700C000006091A10051E0580F3B
S11307201CC0252F30E0F901EE0FFF1FE20FF31F6D
S1130730EE0FFF1FE90FF11DEE55FF4F20812F71C2
S113074011F44F5F01C040E09F5F02C090E040E0C1
S1130750963038F3463020F45F5F5617B8F301C083
S1130760652F982F990F890F782F770F862F880F71
S1130770860F582F550F88C0E52FF0E0EF55FF4F37
S1130780408190E04CC0242F30E0092E02C0359502
S113079027950A94E2F720FF21C0923099F028F4BB
S11307A0992341F0913051F039C0933079F094306D
S11307B089F034C088B38E7F88BB30C088B38D7F06
S11307C088BB2CC088B38B7F88BB28C088B3877F45
S11307D088BB24C088B38F7E88BB20C0923099F038
S11307E028F4992341F0913051F018C0933079F0F6
S11307F0943089F013C088B3816088BB0FC088B37C
S1130800826088BB0BC088B3846088BB07C088B390
S1130810886088BB03C088B3806188BB9F5F9530C4
S113082008F4B1CF8FE09EE00197F1F700C000001B
S113083090E021C0923099F028F4992341F091304E
S113084051F018C0933079F0943089F013C088B314
S1130850816088BB0FC088B3826088BB0BC088B33B
S1130860846088BB07C088B3886088BB03C088B332
S1130870806188BB9F5F9530E8F2E7EEF3E0319743
S1130880F1F700C000005150751708F475CF862F9A
S1130890089580E090E0B59B08C02091A0002F5FF0
S11308A02093A00010929F0007C020919F002F5F0B
S11308B020939F001092A00020919F00223318F0F3
S11308C021E020939E002091A000223310F010928A
S11308D09E0020919E00C1E0211101C0C0E09C1740
S11308E0E8F52FEB37E591E0215030409040E1F7F7
S11308F000C000000BDF9091A100891708F080E090
S113090090E021C0923099F028F4992341F091307D
S113091051F018C0933079F0943089F013C028B3A3
S1130920216028BB0FC028B3226028BB0BC028B3AA
S1130930246028BB07C028B3286028BB03C028B3A1
S1130940206128BB9F5F9530E8F22FEF33EF91E0F1
S1130950215030409040E1F700C000002AE12A9580
S1130960F1F700C09C2F97CF80E886BD16BCC0DB92
S11309704CDC44DC08958FEB9DE50197F1F700C052
S11309800000F2DFEADB8FEF85DBC82F823099F0BD
S113099028F4882341F0813051F018C0833079F075
S11309A0843089F013C088B38E7F88BB0FC088B3AE
S11309B08D7F88BB0BC088B38B7F88BB07C088B38F
S11309C0877F88BB03C088B38F7E88BB8C2F90E061
S11309D00196049724F060E08FEF50DB04C061E0DF
S11309E06C0F8FEF4BDB9FEF29E638E191502040ED
S11309F03040E1F700C0000060E08FEF3FDB52DBE6
S1130A00C13061F030F0C230D1F1C33009F466C0B6
S1130A10F7CF38DE88B3806288BB3BDF88B380625F
S1130A2088BBB59B08C08091A0008F5F8093A00015
S1130A3010929F0007C080919F008F5F80939F005A
S1130A401092A00080919F00823318F081E080937F
S1130A509E008091A000823310F010929E0080913D
S1130A609E00882321F088B38E7F88BB03C088B39F
S1130A70816088BB8AE18A95F1F700C0D2CFD7DBC9
S1130A80882381F088B38B7F88BB9FEF21EE34E00D
S1130A90915020403040E1F700C0000088B38460EA
S1130AA088BBC0E05ADBACCF98B3977F98BB9FEF6D
S1130AB021EE34E0915020403040E1F700C00000C6
S1130AC098B3986098BB9FEF21EE34E0915020409A
S1130AD03040E1F700C000008F5F01C080E0853046
S1130AE018F36FEF80E0CADAC0E08ACF97FB072ED5
S1130AF016F4009406D077FD08D00BD007FC05D07F
S1130B003EF4909581959F4F0895709561957F4F20
S1130B100895AA1BBB1B51E107C0AA1FBB1FA61740
S1130B20B70710F0A61BB70B881F991F5A95A9F792
S1110B3080959095BC01CD010895F894FFCFF7
S1130B3E0E1111110E00001F09090600001F1515D4
S1130B4E11001F0204081F0000000000000010170F
S1130B5E151D0100001E05051E000F1810180F00AC
S1110B6E0E1111111100001F151511000A00BF
S9030000FC
